:020000040000FA
:040000000040006F4D
:040004000000009365
:0400080010010117CB
:04000C00FF8101135C
:040010000000019358
:0400140000000213D3
:04001800000002934F
:04001C0000000313CA
:040020000000039346
:0400240000000413C1
:04002800000004933D
:04002C0000000513B8
:040030000000059334
:0400340000000613AF
:04003800000006932B
:04003C0000000713A6
:040040000000079322
:04004400000008139D
:040048000000089319
:04004C000000091394
:040050000000099310
:0400540000000A138B
:0400580000000A9307
:04005C0000000B1382
:0400600000000B93FE
:0400640000000C1379
:0400680000000C93F5
:04006C0000000D1370
:0400700000000D93EC
:0400740000000E1367
:0400780000000E93E3
:04007C0000000F135E
:0400800000000F93DA
:040084004A9060EF4F
:040088000000006F05
:04008C0000B5202378
:040090000000806785
:040094000005D78309
:0400980000F512233A
:04009C000025D783E1
:0400A00000F5132331
:0400A4000045D783B9
:0400A80000F5142328
:0400AC000065D78391
:0400B00000F515231F
:0400B4000085D78369
:0400B80000F5162316
:0400BC0000A5D78341
:0400C00000F517230D
:0400C40000C5D78319
:0400C80000F5182304
:0400CC0000E5D783F1
:0400D00000F51923FB
:0400D4000105D783C8
:0400D80000F51A23F2
:0400DC000125D783A0
:0400E00000F51B23E9
:0400E4000000806731
:0400E8000005268366
:0400EC000006A783E0
:0400F000FFFFE737F0
:0400F4001FF70713D8
:0400F80000E7F7B373
:0400FC000095959343
:0401000000F5E5B36E
:0401040000B6A0237E
:040108000005278344
:04010C0000C7A22363
:040110000000806704
:04011400FF010113D3
:040118000011262389
:04011C000081242317
:0401200000050413BF
:04012400005595935A
:040128000016161394
:04012C0000B6663380
:04013000000527831C
:0401340000C7A0233D
:040138000045560325
:04013C000000059327
:04014000FA9FF0EF43
:0401440000645603FA
:04014800001005930B
:04014C000004051393
:04015000F99FF0EF34
:0401540000845603CA
:0401580000200593EB
:04015C000004051383
:04016000F89FF0EF25
:0401640000A456039A
:0401680000300593CB
:04016C000004051373
:04017000F79FF0EF16
:0401740000C456036A
:0401780000400593AB
:04017C000004051363
:04018000F69FF0EF07
:0401840000E456033A
:04018800005005938B
:04018C000004051353
:04019000F59FF0EFF8
:040194000104560309
:04019800006005936B
:04019C000004051343
:0401A000F49FF0EFE9
:0401A40001245603D9
:0401A800007005934B
:0401AC000004051333
:0401B000F39FF0EFDA
:0401B40001445603A9
:0401B800008005932B
:0401BC000004051323
:0401C000F29FF0EFCB
:0401C4000164560379
:0401C800009005930B
:0401CC000004051313
:0401D000F19FF0EFBC
:0401D40000042703F9
:0401D8000007278372
:0401DC000017E7938E
:0401E00000F72023E1
:0401E40000C12083B3
:0401E800008124036B
:0401EC0001010113F9
:0401F0000000806724
:0401F4000005278358
:0401F8000007A02339
:0401FC000000806718
:0402000000052703CB
:040204000007278345
:0402080000058A6300
:04020C00000026B711
:0402100000D7E7B379
:0402140000F72023AC
:0402180000008067FB
:04021C00FFFFE6B743
:04022000FFF68693CC
:0402240000D7F7B355
:04022800FEDFF06F96
:04022C00FC010113BD
:0402300002112E2366
:0402340002512C2324
:0402380002612A2312
:04023C000271282300
:0402400002A12623CE
:0402440002B12423BC
:0402480002C12223AA
:04024C0002D1202398
:0402500000E12E2378
:0402540000F12C2366
:0402580001012A2353
:04025C000111282341
:0402600001C126238F
:0402640001D124237D
:0402680001E122236B
:04026C0001F1202359
:040270001000E5375E
:040274004C8505139D
:04027800274050EFDC
:04027C001000F53742
:040280009E050513BF
:04028400268050EF91
:0402880003C120830B
:04028C000381228345
:040290000341230300
:0402940003012383BC
:0402980002C1250377
:04029C000281258333
:0402A00002412603EE
:0402A40002012683AA
:0402A80001C1270366
:0402AC000181278322
:0402B00001412803DD
:0402B4000101288399
:0402B80000C12E0350
:0402BC0000812E830C
:0402C00000412F03C7
:0402C40000012F8383
:0402C8000401011319
:0402CC00302000736B
:0402D00022C00793AE
:0402D400305790739C
:0402D8000080079308
:0402DC0030079073E4
:0402E000000017B74C
:0402E4008007879375
:0402E8003047907398
:0402EC000000806727
:0402F0000FF67793FB
:0402F40000100713DC
:0402F80010001637A5
:0402FC004DC60613D2
:040300000010069350
:0403040002F7786321
:0403080000062703C1
:04030C0002E578632B
:04031000FFF78793D9
:040314000FF7F79355
:040318000046061382
:04031C00FED796E38F
:0403200000000713BF
:0403240000170713A4
:0403280000E5883331
:04032C00030008932F
:040330000480006FD6
:040334001000163768
:040338004DC6061395
:04033C00FFF787132D
:040340000FF7771329
:04034400FE0790E33D
:040348000005881311
:04034C000008002382
:0403500000008067C2
:0403540040D7073354
:040358000017879370
:04035C000FF7F7930D
:04036000FED77AE367
:040364000007051376
:040368000015859364
:04036C00FEF58FA368
:04037000004606132A
:04037400FCB80CE3E2
:0403780000062683D2
:04037C00000507135E
:040380000008879357
:04038400FCD578E349
:04038800FE1FF06FF5
:04038C00FA0101135E
:0403900002112E2305
:0403940002812C2393
:0403980002912A2381
:04039C0003212823EE
:0403A00003312623DC
:0403A40003412423CA
:0403A80003512223B8
:0403AC0003612023A6
:0403B00001712E2386
:0403B40001812C2374
:0403B80001912A2362
:0403BC000005031322
:0403C00004B122233F
:0403C40004C1242329
:0403C80004D1262313
:0403CC0004E12823FD
:0403D00004F12A23E7
:0403D40005012C23D0
:0403D80005112E23BA
:0403DC00044107933E
:0403E00000F12623DF
:0403E40000150413E9
:0403E80000054503C4
:0403EC001805046389
:0403F0000250049320
:0403F40006300B13B1
:0403F80007800B93DC
:0403FC0006400C1398
:0404000007300C9322
:040404000180006F04
:04040800650000EF9C
:04040C0000040313D2
:0404100000130413BE
:040414000003450399
:0404180014050E6356
:04041C00FE9516E350
:040420000023099319
:0404240000134783F7
:0404280014078663CC
:04042C00049784634A
:0404300005678A636F
:04043400077786635D
:040438000F87846343
:04043C00000983131D
:04044000FD9798E3A9
:0404440000C1278349
:0404480000478713CF
:04044C0000E1262382
:040450000007A403FA
:040454000004450358
:04045800FA050CE3B2
:04045C000014041371
:040460005F8000EFCA
:040464000004450348
:04046800FE051AE390
:04046C0000098313ED
:04047000FA1FF06F10
:0404740000048513E8
:040478005E0000EF33
:04047C0000098313DD
:04048000F91FF06F01
:0404840000C1278309
:04048800004787138F
:04048C0000E1262342
:040490000007C50399
:040494005C4000EFD9
:0404980000098313C1
:04049C00F75FF06FA7
:0404A00000C12783ED
:0404A4000047871373
:0404A80000E1262326
:0404AC000007A90399
:0404B00002090863D2
:0404B400100007B776
:0404B80001C0041368
:0404BC0000F0071332
:0404C00000F97A6362
:0404C400FFC404135A
:0404C800008717B3DF
:0404CC000127F7B35A
:0404D000FE078AE3B6
:0404D40000F00A9397
:0404D80000900A1373
:0404DC000280006F2B
:0404E00003000513FD
:0404E400574000EF8E
:0404E8000009831371
:0404EC00F25FF06F5C
:0404F0000575051376
:0404F4000FF5751378
:0404F800560000EFBB
:0404FC000604086387
:04050000FFC404131D
:04050400008A9533A1
:040508000125753321
:04050C0000855533DE
:04051000FEAA60E3FC
:0405140003050513C3
:040518000FF5751353
:04051C00FDDFF06FA0
:0405200000C127836C
:0405240000478713F2
:0405280000E12623A5
:04052C0000A0061312
:04053000000105932E
:040534000007A50314
:04053800DB9FF0EF66
:04053C000001450372
:04054000020502634B
:04054400000004139C
:040548000014041384
:04054C000FF4741321
:04055000508000EFE8
:040554000104079304
:04055800002787B33E
:04055C00FF07C503CD
:04056000FE0514E39D
:0405640000098313F4
:04056800EA9FF06FA7
:04056C0000098313EC
:04057000EA1FF06F1F
:0405740003C120831C
:0405780003812403D4
:04057C000341248390
:040580000301290347
:0405840002C1298304
:0405880002812A03BF
:04058C0002412A837B
:0405900002012B0336
:0405940001C12B83F3
:0405980001812C03AE
:04059C0001412C836A
:0405A000060101133C
:0405A400000080676C
:0405A8000005102317
:0405AC000005112312
:0405B0000000806760
:0405B4000005578364
:0405B800010797930D
:0405BC000107D793C9
:0405C0003FF00713EE
:0405C40000E78E635B
:0405C8000005578350
:0405CC0000178793FA
:0405D00001079793F5
:0405D4000107D793B1
:0405D80000F51023F7
:0405DC000000806734
:0405E00000051023DF
:0405E400000080672C
:0405E8000025578310
:0405EC0001079793D9
:0405F0000107D79395
:0405F4003FF00713BA
:0405F80000E78E6327
:0405FC0000255783FC
:0406000000178793C5
:0406040001079793C0
:040608000107D7937C
:04060C0000F51123C1
:0406100000008067FF
:0406140000051123A9
:0406180000008067F7
:04061C00FF010113C6
:04062000001126237C
:040624000005570373
:0406280000E507B32F
:04062C0000B782236E
:04063000F85FF0EF90
:0406340000C120835E
:0406380001010113A8
:04063C0000008067D3
:04064000FF010113A2
:040644000011262358
:0406480000812423E6
:04064C00002557032B
:0406500000E507B307
:040654000047C40394
:04065800F91FF0EFA7
:04065C00000405137E
:0406600000C1208332
:0406640000812403EA
:040668000101011378
:04066C0000008067A3
:0406700000055783A7
:040674000025570303
:0406780040E785339F
:04067C00001535131D
:04068000000080678F
:04068400FF0101135E
:040688000011262314
:04068C0000812423A2
:04069000000504134A
:040694000005578383
:0406980000255703DF
:04069C000107979328
:0406A0000107D793E4
:0406A40002E7826384
:0406A8000004051332
:0406AC00F95FF0EF13
:0406B0003A8000EF9D
:0406B4000004578364
:0406B80000245703C0
:0406BC000107979308
:0406C0000107D793C4
:0406C400FEE792E3D8
:0406C80000C12083CA
:0406CC000081240382
:0406D0000101011310
:0406D400000080673B
:0406D8000FF677930F
:0406DC0000100713F0
:0406E00010001637B9
:0406E4005046061363
:0406E8000010069365
:0406EC0002F7786336
:0406F00000062703D6
:0406F40002E5786340
:0406F800FFF78793EE
:0406FC000FF7F7936A
:040700000046061396
:04070400FED796E3A3
:0407080000000713D3
:04070C0000170713B8
:0407100000E5883345
:040714000300089343
:040718000480006FEA
:04071C00100016377C
:040720005046061326
:04072400FFF7871341
:040728000FF777133D
:04072C00FE0790E351
:040730000005881325
:040734000008002396
:0407380000008067D6
:04073C0040D7073368
:040740000017879384
:040744000FF7F79321
:04074800FED77AE37B
:04074C00000705138A
:040750000015859378
:04075400FEF58FA37C
:04075800004606133E
:04075C00FCB80CE3F6
:0407600000062683E6
:040764000005071372
:04076800000887936B
:04076C00FCD578E35D
:04077000FE1FF06F09
:04077400FA01011372
:0407780002112E2319
:04077C0002812C23A7
:0407800002912A2395
:040784000321282302
:0407880003312623F0
:04078C0003412423DE
:0407900003512223CC
:0407940003612023BA
:0407980001712E239A
:04079C0001812C2388
:0407A00001912A2376
:0407A40001A1282364
:0407A80000050493B1
:0407AC0000058513AC
:0407B00004C1242339
:0407B40004D1262323
:0407B80004E128230D
:0407BC0004F12A23F7
:0407C00005012C23E0
:0407C40005112E23CA
:0407C800048107930E
:0407CC0000F12623EF
:0407D0000015841379
:0407D4000005C583D4
:0407D8001A05826319
:0407DC0002500913AB
:0407E00006300B9341
:0407E40007800C136B
:0407E80006400C9328
:0407EC0007300D13B2
:0407F00001C0006FD5
:0407F4000004851365
:0407F800E25FF0EFDD
:0407FC0000040513DD
:0408000000150413C8
:040804000005458323
:0408080016058A63E4
:04080C00FF2594E34D
:0408100000250A13A2
:040814000015478301
:0408180016078263DA
:04081C0005278663C3
:0408200005778E6367
:0408240007878C6353
:040828000F978E6335
:04082C00000A0513A6
:04083000FDA798E3A5
:0408340000C1278355
:0408380000478713DB
:04083C0000E126238E
:040840000007A40306
:0408440000044583E4
:04084800FA058CE33E
:04084C00001404137D
:040850000004851308
:04085400DC9FF0EF46
:0408580000044583D0
:04085C00FE0598E31A
:04086000000A051372
:04086400F9DFF06F59
:0408680000090593EB
:04086C0000048513EC
:04087000DADFF0EFEC
:04087400000A05135E
:04087800F89FF06F86
:04087C0000C127830D
:040880000047871393
:0408840000E1262346
:040888000007C5831D
:04088C0000048513CC
:04089000D8DFF0EFCE
:04089400000A05133E
:04089800F69FF06F68
:04089C0000C12783ED
:0408A0000047871373
:0408A40000E1262326
:0408A8000007A98319
:0408AC000209886352
:0408B000100007B776
:0408B40001C0041368
:0408B80000F0071332
:0408BC0000F9FA63E2
:0408C000FFC404135A
:0408C400008717B3DF
:0408C8000137F7B34A
:0408CC00FE078AE3B6
:0408D00000F00B1316
:0408D40000900A93F3
:0408D8000300006FAA
:0408DC00030005937D
:0408E0000004851378
:0408E400D39FF0EFBF
:0408E800000A0513EA
:0408EC00F15FF06F59
:0408F0000575859372
:0408F4000FF5F59374
:0408F8000004851360
:0408FC00D21FF0EF28
:0409000006040A637C
:04090400FFC4041315
:04090800008B15B398
:04090C000135F5B309
:040910000085D5B3D6
:04091400FCBAEEE358
:0409180003058593BB
:04091C000FF5F5934B
:04092000FD9FF06FD8
:0409240000C1278364
:0409280000478713EA
:04092C0000E126239D
:0409300000A006130A
:040934000001059326
:040938000007A5030C
:04093C00D9DFF0EF20
:0409400000014583EA
:0409440002058463C1
:040948000000041394
:04094C00001404137C
:040950000FF4741319
:040954000004851303
:04095800CC5FF0EF91
:04095C0001040793F8
:04096000002787B332
:04096400FF07C58341
:04096800FE0592E313
:04096C00000A051365
:04097000E91FF06F1C
:04097400000A05135D
:04097800E89FF06F95
:04097C0003C1208310
:0409800003812403C8
:040984000341248384
:04098800030129033B
:04098C0002C12983F8
:0409900002812A03B3
:0409940002412A836F
:0409980002012B032A
:04099C0001C12B83E7
:0409A00001812C03A2
:0409A40001412C835E
:0409A80001012D0319
:0409AC00060101132C
:0409B000000080675C
:0409B40000B5202347
:0409B8000010079391
:0409BC0000F5A2237D
:0409C000000080674C
:0409C4000005278380
:0409C80000B7AC23A5
:0409CC000000806740
:0409D0000005278374
:0409D40000B7AE2397
:0409D8000000806734
:0409DC000005278368
:0409E00002B7A02397
:0409E4000000806728
:0409E800000527835C
:0409EC0002C7A42377
:0409F0000005278354
:0409F40002B7A22381
:0409F8000000806714
:0409FC000005278348
:040A00000047A70301
:040A040000259593A1
:040A080000E5E5B36D
:040A0C0000B7A2236A
:040A100000008067FB
:040A1400000527832F
:040A18000107A5032A
:040A1C0000B5753379
:040A200000A03533CA
:040A240000008067E7
:040A2800000527831B
:040A2C0000C7A50357
:040A300000008067DB
:040A3400000527830F
:040A380000C7A5034B
:040A3C0000B5753359
:040A400000A03533AA
:040A440000008067C7
:040A480000B52023B2
:040A4C0000100793FC
:040A500000F5A023EA
:040A540000008067B7
:040A5800100007374C
:040A5C0000C7278325
:040A60000047A78321
:040A64000027F793DD
:040A6800FE079AE308
:040A6C00100007B7B8
:040A700000C7A78391
:040A740000A7A42310
:040A78000000806793
:040A7C00100007B7A8
:040A800000C7A78381
:040A84000047A5037F
:040A8800008555137D
:040A8C0000154513F9
:040A900000157513C5
:040A94000000806777
:040A9800100007370C
:040A9C0000C72783E5
:040AA0000047A783E1
:040AA4001007F793AD
:040AA800FE079AE3C8
:040AAC00100007B778
:040AB00000C7A78351
:040AB40000C7A503CF
:040AB8000FF57513AE
:040ABC00000080674F
:040AC000FE0101131F
:040AC40000112E23CC
:040AC80000812C235A
:040ACC0000912A2348
:040AD00001212823B5
:040AD40001312623A3
:040AD8000141242391
:040ADC00015122237F
:040AE000016120236D
:040AE40000000913F2
:040AE80000000B13EC
:040AEC0010000437BB
:040AF00010000A37B1
:040AF40000D0099392
:040AF80000500A930D
:040AFC000180006F06
:040B0000016484B355
:040B040001049B133A
:040B0800010B5B136F
:040B0C0000190913B0
:040B10000FF979134D
:040B140000C427836F
:040B18000047A78368
:040B1C001007F79334
:040B2000FE079AE34F
:040B240000C427835F
:040B280000C7A583DA
:040B2C000FF5F4933A
:040B300000048593A5
:040B3400014A05135A
:040B3800855FF0EFF6
:040B3C0003348A6391
:040B4000FD04849399
:040B44000FF4F49323
:040B4800FA090CE3B7
:040B4C00002B1793D0
:040B500000FB07B3EC
:040B5400001797935C
:040B5800009787B3C8
:040B5C0001079B13DF
:040B6000010B5B1317
:040B64000019091358
:040B68000FF97913F5
:040B6C00FB5914E33A
:040B7000000B05135E
:040B740001C1208318
:040B780001812403D0
:040B7C00014124838C
:040B80000101290343
:040B840000C1298300
:040B880000812A03BB
:040B8C0000412A8377
:040B900000012B0332
:040B94000201011346
:040B98000000806772
:040B9C00FD01011343
:040BA00002112623F5
:040BA4000281242383
:040BA8000291222371
:040BAC0003212023DE
:040BB00001312E23BE
:040BB40001412C23AC
:040BB80001512A239A
:040BBC000161282388
:040BC0000171262376
:040BC4000000091311
:040BC800000009938D
:040BCC0010000437DA
:040BD00010000AB750
:040BD40000D00A1330
:040BD80006000B13F5
:040BDC0000500B9327
:040BE0000240006F60
:040BE400FD048493F5
:040BE8000FF4F4937F
:040BEC000500006F91
:040BF000013484B395
:040BF40001049993CC
:040BF8000109D99383
:040BFC0000190913C0
:040C00000FF979135C
:040C040000C427837E
:040C08000047A78377
:040C0C001007F79343
:040C1000FE079AE35E
:040C140000C427836E
:040C180000C7A583E9
:040C1C000FF5F49349
:040C200000048593B4
:040C2400014A8513E9
:040C2800F64FF0EFA4
:040C2C000344886392
:040C3000FA9B7AE3CE
:040C3400FA94849317
:040C38000FF4F4932E
:040C3C00FA090AE3C4
:040C4000004999933B
:040C4400009989B3D7
:040C48000109999372
:040C4C000109D9932E
:040C5000001909136B
:040C54000FF9791308
:040C5800FB7916E32B
:040C5C0000098513F3
:040C600002C120832A
:040C640002812403E2
:040C6800024124839E
:040C6C000201290355
:040C700001C1298312
:040C740001812A03CD
:040C780001412A8389
:040C7C0001012B0344
:040C800000C12B8301
:040C84000301011354
:040C88000000806781
:040C8C0000B520236C
:040C900000100793B6
:040C940000F5A023A4
:040C98000000806771
:040C9C000205986352
:040CA00000052783A1
:040CA40000C7A623BC
:040CA800002006938F
:040CAC00004007936A
:040CB0000005270311
:040CB400000726030C
:040CB80000C7E7B3D7
:040CBC0000F72023FA
:040CC0000005278381
:040CC40000D7A22390
:040CC8000000806741
:040CCC000005278375
:040CD00000C7A8238E
:040CD4000040069343
:040CD80000800793FE
:040CDC00FD5FF06F59
:040CE0000005278361
:040CE4000047A7839B
:040CE80000B03533F0
:040CEC0000151513C7
:040CF00000250513C3
:040CF40000F575335F
:040CF80000A03533F0
:040CFC00000080670D
:040D0000FF010113DB
:040D04000011262391
:040D0800008124231F
:040D0C00009122230D
:040D10000005049343
:040D1400000584133F
:040D1800F85FF0EFA1
:040D1C000004059337
:040D20000004851333
:040D2400FBDFF0EF12
:040D2800FE050AE3D7
:040D2C0000C120835F
:040D30000081240317
:040D340000412483D3
:040D380001010113A1
:040D3C0000008067CC
:040D400000B52023B7
:040D4400002656131C
:040D480000C5A4231B
:040D4C0000050B2370
:040D500000052783F0
:040D54000007A023D1
:040D580000008067B0
:040D5C0000050693F5
:040D600000052783E0
:040D64000030071341
:040D680000E7A023DD
:040D6C000005270354
:040D7000004727838E
:040D74000027F793CA
:040D7800FE078CE303
:040D7C0000200793B9
:040D800000F7222333
:040D84000006A703BB
:040D88000046C783D7
:040D8C000017979322
:040D900000F726231F
:040D94000006A7832B
:040D980000900713AD
:040D9C0000E7A023A9
:040DA0000006A7039F
:040DA400004727835A
:040DA8000027F79396
:040DAC00FE078CE3CF
:040DB0000020079385
:040DB40000F72223FF
:040DB8000006A78307
:040DBC000047A50344
:040DC0000045751362
:040DC40008050663B5
:040DC8000156C78386
:040DCC000407846331
:040DD0000000061306
:040DD4000090051373
:040DD800002005935F
:040DDC000006A783E3
:040DE00000C687338F
:040DE400005747036A
:040DE80000E7A62357
:040DEC000006A783D3
:040DF00000A7A02395
:040DF4000006A7034B
:040DF8000047278306
:040DFC000027F79342
:040E0000FE078CE37A
:040E040000B72223EE
:040E080000160613B7
:040E0C000156C78341
:040E1000FCF646E3C3
:040E14000166C78329
:040E180000100513AE
:040E1C0002079A63CC
:040E20000006A7839E
:040E24000050071360
:040E280000E7A0231C
:040E2C000006A70312
:040E300000472783CD
:040E34000027F79309
:040E3800FE078CE342
:040E3C0000200793F8
:040E400000F7222372
:040E44000006A7837A
:040E48000007A023DC
:040E4C00001005137A
:040E500000008067B7
:040E540000050693FC
:040E580000052783E7
:040E5C000030071348
:040E600000E7A023E4
:040E6400000527035B
:040E68000047278395
:040E6C000027F793D1
:040E7000FE078CE30A
:040E740000200793C0
:040E780000F722233A
:040E7C000006A703C2
:040E80000046C783DE
:040E84000017979329
:040E88000017E793D5
:040E8C0000F7262322
:040E90000006A7832E
:040E940000900713B0
:040E980000E7A023AC
:040E9C000006A703A2
:040EA000004727835D
:040EA4000027F79399
:040EA800FE078CE3D2
:040EAC000020079388
:040EB00000F7222302
:040EB4000006A7830A
:040EB8000047A50347
:040EBC000045751365
:040EC0000A050063BC
:040EC4000156C78389
:040EC80004078E632A
:040ECC000000061309
:040ED00000200513E6
:040ED400000605937C
:040ED800FFF7879306
:040EDC0000F627B342
:040EE000005797938D
:040EE40001178793D8
:040EE8000006A70356
:040EEC0000F72023C8
:040EF0000006A7034E
:040EF4000047278309
:040EF8000027F79345
:040EFC00FE078CE37E
:040F000000A7222301
:040F04000006A783B9
:040F08000107A70333
:040F0C0000B687B3F1
:040F100000E782A3D1
:040F140000160613AA
:040F18000FF6761347
:040F1C000156C78330
:040F2000FAF66AE390
:040F24000166C78318
:040F2800001005139D
:040F2C0002079A63BB
:040F30000006A7838D
:040F3400005007134F
:040F380000E7A0230B
:040F3C000006A70301
:040F400000472783BC
:040F44000027F793F8
:040F4800FE078CE331
:040F4C0000200793E7
:040F500000F7222361
:040F54000006A78369
:040F58000007A023CB
:040F5C000010051369
:040F600000008067A6
:040F640000B035B3F1
:040F680040B005B3DD
:040F6C000415F593E0
:040F70000006046310
:040F74000805E593F4
:040F780000052783C6
:040F7C0000B7A023F7
:040F80000000806786
:040F8400FF01011355
:040F8800001126230B
:040F8C000081242399
:040F90000091222387
:040F9400000504133D
:040F980000B502237B
:040F9C00FFD00793E8
:040FA00000F502A3B3
:040FA400001007939F
:040FA80000F503232A
:040FAC00002004938A
:040FB00000950AA3FB
:040FB400DA9FF0EFE1
:040FB8000440079357
:040FBC0000F402A398
:040FC0000050079343
:040FC40000F403230F
:040FC80000940AA3E4
:040FCC000004051305
:040FD000D8DFF0EF87
:040FD40000C12083B5
:040FD800008124036D
:040FDC000041248329
:040FE00001010113F7
:040FE4000000806722
:040FE800FF010113F1
:040FEC0000112623A7
:040FF0000081242335
:040FF4000091222323
:040FF8000121202390
:040FFC0000050413D5
:0410000000068493CF
:0410040000B502230E
:041008000086579374
:04100C0000F502A346
:0410100000C50323F1
:04101400002007931E
:0410180000F50AA332
:04101C0000100913A4
:0410200001250B2378
:04102400D39FF0EF77
:0410280001250E632D
:04102C0000C120835C
:041030000081240314
:0410340000412483D0
:041038000001290387
:04103C00010101139A
:0410400000008067C5
:0410440000100793FE
:0410480000F40AA303
:04104C0000040B236E
:041050000004051380
:04105400E01FF0EFBA
:041058000054478376
:04105C0000F48023F9
:04106000FCDFF06F52
:04106400FF01011374
:04106800001126232A
:04106C0000B50223A6
:04107000008657138C
:0410740000E502A3EE
:0410780000C5032389
:04107C0000D503A3F5
:041080000030071322
:0410840000E50AA3D6
:04108800CD5FF0EF59
:04108C0000C12083FC
:041090000101011346
:041094000000806771
:04109800FD01011342
:04109C0002112623F4
:0410A0000281242382
:0410A4000291222370
:0410A80003212023DD
:0410AC0001312E23BD
:0410B00001412C23AB
:0410B40001512A2399
:0410B8000005091313
:0410BC00000589930F
:0410C00002060C63B5
:0410C400000684138B
:0410C80000060A1301
:0410CC000000049389
:0410D00000100A936F
:0410D400004446830B
:0410D80000045603B7
:0410DC0000098593EF
:0410E00000090513EB
:0410E400F81FF0EF12
:0410E8000155186333
:0410EC000084041365
:0410F00000148493D1
:0410F400FF4490E342
:0410F80000F106936A
:0410FC0000A0061337
:0411000000098593CA
:0411040000090513C6
:04110800EE1FF0EFF7
:04110C0000F14403A7
:0411100000146693CE
:0411140000A006131E
:0411180000098593B2
:04111C0000090513AE
:04112000F45FF0EF99
:041124000FE47693CB
:0411280000A006130A
:04112C00000985939E
:04113000000905139A
:04113400F31FF0EFC6
:0411380002C120834D
:04113C000281240305
:0411400002412483C1
:041144000201290378
:0411480001C1298335
:04114C0001812A03F0
:0411500001412A83AC
:04115400030101137F
:0411580000008067AC
:04115C00FD0101137D
:04116000021126232F
:0411640002812423BD
:0411680002912223AB
:04116C000321202318
:0411700001312E23F8
:0411740000050493DB
:0411780000058913D2
:04117C00000689934D
:0411800000200793B1
:04118400112004131F
:0411880002F6006308
:04118C000030079395
:0411900011A0041393
:0411940000F60A63F4
:0411980000100793A9
:04119C0010A0041388
:0411A00000F60463EE
:0411A4001020041300
:0411A80000F10693B9
:0411AC000004061322
:0411B000000905939A
:0411B400000485139B
:0411B800E31FF0EF52
:0411BC0002098C6335
:0411C00000F1468371
:0411C4000FD6F693B9
:0411C8000004061306
:0411CC00000905937E
:0411D000000485137F
:0411D400E91FF0EF30
:0411D80002C12083AD
:0411DC000281240365
:0411E0000241248321
:0411E40002012903D8
:0411E80001C1298395
:0411EC0003010113E7
:0411F0000000806714
:0411F40000F146833D
:0411F8000026E69354
:0411FC00FCDFF06FB5
:04120000FE010113D7
:0412040000112E2384
:0412080000812C2312
:04120C0000912A2300
:04121000012128236D
:04121400013126235B
:041218000141242349
:04121C0000050913AD
:0412200000058993A9
:0412240000060413A9
:0412280000068493A5
:04122C000000069325
:04123000F2DFF0EF0A
:0412340000200793FC
:0412380011000A1384
:04123C0002F4006355
:0412400000300793E0
:0412440011800A13F8
:0412480000F40A6341
:04124C0000100793F4
:0412500010800A13ED
:0412540000F404633B
:0412580010000A1365
:04125C000FF4F69302
:04126000000A061367
:041264000009859365
:041268000009051361
:04126C00DF9FF0EF21
:041270000084D6938D
:041274000806E693EF
:04127800001A06133F
:04127C00000985934D
:041280000009051349
:04128400DE1FF0EF8A
:0412880000050493C6
:04128C0000100693B5
:04129000000406133D
:041294000009859335
:041298000009051331
:04129C00EC1FF0EF64
:0412A00000048513AE
:0412A40001C12083E1
:0412A8000181240399
:0412AC000141248355
:0412B000010129030C
:0412B40000C12983C9
:0412B80000812A0384
:0412BC000201011317
:0412C0000000806743
:0412C400FF01011312
:0412C80000112623C8
:0412CC000081242356
:0412D0000091222344
:0412D40001212023B1
:0412D8000005049376
:0412DC00000589136D
:0412E00000060413ED
:0412E4000FF67693F8
:0412E8000C8006135D
:0412EC00D79FF0EFA9
:0412F000008456938D
:0412F4000FF6F69368
:0412F8000C9006133D
:0412FC00000905934D
:04130000000485134D
:04130400D61FF0EF11
:0413080001045693F3
:04130C000FF6F6934F
:041310000CA0061314
:041314000009059334
:041318000004851335
:04131C00D49FF0EF7B
:04132000018456935B
:041324000CB00613F0
:041328000009059320
:04132C000004851321
:04133000D35FF0EFA8
:0413340000C1208351
:041338000081240309
:04133C0000412483C5
:04134000000129037C
:04134400010101138F
:0413480000008067BA
:04134C00004597932E
:04135000006597138A
:0413540000E7E7B314
:0413580000A7E7B350
:04135C0000C597131E
:0413600000E7E7B308
:0413640000E5959378
:0413680000B7E7B330
:04136C00002517132E
:0413700000E7E7B3F8
:0413740000851713C6
:0413780000E7E7B3F0
:04137C0000A51513A0
:0413800000A7E533AA
:041384000105151337
:0413880001055513F3
:04138C000000806776
:04139000FF01011345
:0413940000112623FB
:041398000081242389
:04139C000091222377
:0413A00001212023E4
:0413A4000005041329
:0413A8000006849324
:0413AC0000B5022363
:0413B00000C502A3CF
:0413B4000086561346
:0413B80000C5032346
:0413BC000020079373
:0413C00000F50AA387
:0413C40000100913F9
:0413C80001250B23CD
:0413CC00991FF0EF86
:0413D00001250E6382
:0413D40000C12083B1
:0413D8000081240369
:0413DC000041248325
:0413E00000012903DC
:0413E40001010113EF
:0413E800000080671A
:0413EC000040079323
:0413F00000F40AA358
:0413F40000040B23C3
:0413F80000040513D5
:0413FC00A59FF0EFCA
:0414000000544783CA
:0414040000F4A0232D
:041408000064470332
:04140C00008717132B
:0414100000F7673347
:0414140000E4A0232D
:041418000074478392
:04141C00010797939A
:0414200000E7E7B347
:0414240000F4A0230D
:0414280000844703F2
:04142C00018717130A
:0414300000F767B3A7
:0414340000F4A023FD
:04143800F9DFF06F79
:04143C00FF01011398
:04144000001126234E
:0414440000B50223CA
:0414480000C502A336
:04144C0000865613AD
:0414500000C50323AD
:0414540000D503A319
:041458000086D71320
:04145C0000E5042380
:041460000106D71397
:0414640000E504A3F8
:041468000186D69390
:04146C0000D505237F
:0414700000600713FE
:0414740000E50AA3E2
:041478008E5FF0EFA4
:04147C0000C1208308
:041480000101011352
:04148400000080677D
:04148800FE0101134D
:04148C0000112E23FA
:0414900000812C2388
:0414940000912A2376
:0414980001212823E3
:04149C000005041330
:0414A000000584932C
:0414A4000006091322
:0414A80000C10693E6
:0414AC005040061393
:0414B000EE1FF0EF4C
:0414B40000C12683CA
:0414B80002090863BA
:0414BC000486E69329
:0414C000504006137F
:0414C4000004859308
:0414C8000004051304
:0414CC00F71FF0EF27
:0414D00001C12083B3
:0414D400018124036B
:0414D8000141248327
:0414DC0001012903DE
:0414E00002010113F1
:0414E400000080671D
:0414E800FBF6F69386
:0414EC000086E693FD
:0414F000FD1FF06F7D
:0414F400FE010113E1
:0414F80000112E238E
:0414FC0000812C231C
:0415000000912A2309
:041504000121282376
:0415080000050413C3
:04150C0000058493BF
:0415100000C106937D
:04151400504006132A
:04151800E79FF0EF6A
:04151C0000C12903DE
:041520004009669385
:04152400504006131A
:0415280000048593A3
:04152C00000405139F
:04153000F0DFF0EF09
:04153400BFF97693F2
:041538005040061306
:04153C00000485938F
:04154000000405138B
:04154400EF9FF0EF36
:0415480001C120833A
:04154C0001812403F2
:0415500001412483AE
:041554000101290365
:041558000201011378
:04155C0000008067A4
:04156000FE01011374
:0415640000112E2321
:0415680000812C23AF
:04156C0000912A239D
:04157000000504135B
:041574000005849357
:0415780000C1069315
:04157C00350006131D
:04158000E11FF0EF88
:0415840000C12683F9
:04158800FEF6F693E2
:04158C00350006130D
:04159000000485933B
:041594000004051337
:04159800EA5FF0EF27
:04159C0001C12083E6
:0415A000018124039E
:0415A400014124835A
:0415A8000201011328
:0415AC000000806754
:0415B000FF01011323
:0415B40000112623D9
:0415B800333326B7EC
:0415BC00A506869367
:0415C00024C006132A
:0415C400E79FF0EFBE
:0415C80000C12083BB
:0415CC000101011305
:0415D0000000806730
:0415D400FE01011300
:0415D80000112E23AD
:0415DC0000812C233B
:0415E00000912A2329
:0415E4000121282396
:0415E80000050413E3
:0415EC0000058493DF
:0415F00000C106939D
:0415F400504006134A
:0415F800D99FF0EF98
:0415FC0000C12903FE
:0416000040096693A4
:041604005040061339
:0416080000048593C2
:04160C0000040513BE
:04161000E2DFF0EF36
:04161400BFF9769311
:041618005040061325
:04161C0000048593AE
:0416200000040513AA
:04162400E19FF0EF63
:0416280001C1208359
:04162C000181240311
:0416300001412483CD
:041634000101290384
:041638000201011397
:04163C0000008067C3
:04164000FE01011393
:0416440000112E2340
:0416480000812C23CE
:04164C0000912A23BC
:041650000121282329
:041654000005041376
:041658000005849372
:04165C0000C1069330
:041660001500061358
:04166400D2DFF0EFF2
:0416680000C1290391
:04166C00000086B73D
:0416700000D966B384
:041674001500061344
:041678000004859352
:04167C00000405134E
:04168000DBDFF0EFCD
:04168400FFFF86B727
:04168800FFF6869350
:04168C0000D976B358
:041690001500061328
:041694000004859336
:041698000004051332
:04169C00DA1FF0EF72
:0416A00001C12083E1
:0416A4000181240399
:0416A8000141248355
:0416AC00010129030C
:0416B000020101131F
:0416B400000080674B
:0416B800FE0101131B
:0416BC0000112E23C8
:0416C00000812C2356
:0416C40000912A2344
:0416C80001212823B1
:0416CC0000050413FE
:0416D00000058493FA
:0416D40000060913F0
:0416D80000C10693B4
:0416DC0000001637BD
:0416E00090860613D7
:0416E400CADFF0EF7A
:0416E800040900638E
:0416EC0000C1268390
:0416F000FFFFF7B74A
:0416F4007FF7879362
:0416F80000F6F6B34F
:0416FC00000016379D
:0417000090860613B6
:0417040000048593C5
:0417080000040513C1
:04170C00D31FF0EF08
:0417100001C1208370
:041714000181240328
:0417180001412483E4
:04171C00010129039B
:0417200002010113AE
:0417240000008067DA
:0417280000C1268353
:04172C00000017B7EB
:041730008007879314
:0417340000F6E6B322
:04173800FC5FF06FF3
:04173C00FE01011396
:0417400000112E2343
:0417440000812C23D1
:0417480000912A23BF
:04174C00012128232C
:041750000005041379
:041754000005849375
:0417580000C1069333
:04175C000000193739
:041760009089061353
:04176400C2DFF0EF01
:0417680000C1268313
:04176C00FFFFF7B7CD
:041770007FF78793E5
:0417740000F6F6B3D2
:04177800908906133B
:04177C00000485934D
:041780000004051349
:04178400CB9FF0EF18
:0417880000000693C4
:04178C0092C90613E5
:041790000004859339
:041794000004051335
:04179800CA5FF0EF45
:04179C00555506B7E2
:0417A0005056869386
:0417A400910906138E
:0417A8000004859321
:0417AC00000405131D
:0417B000C8DFF0EFAF
:0417B4005A5A16B7B0
:0417B800A0A68693CE
:0417BC009149061336
:0417C0000004859309
:0417C4000004051305
:0417C800C75FF0EF18
:0417CC005F5FB6B7EE
:0417D000AAA68693AC
:0417D40091890613DE
:0417D80000048593F1
:0417DC0000040513ED
:0417E000C5DFF0EF82
:0417E400FFFFB6B796
:0417E800FAF68693F4
:0417EC0091C9061386
:0417F00000048593D9
:0417F40000040513D5
:0417F800C45FF0EFEB
:0417FC0001C1208384
:04180000018124033B
:0418040001412483F7
:0418080001012903AE
:04180C0002010113C1
:0418100000008067ED
:04181400FD010113BE
:041818000211262370
:04181C0002812423FE
:0418200002912223EC
:041824000321202359
:0418280001312E2339
:04182C0001412C2327
:041830000005049318
:04183400000589130F
:04183800000604138F
:04183C0000068A1305
:0418400000C106934A
:04184400000019B7D0
:0418480090898613EA
:04184C00B45FF0EFA6
:0418500000C126832A
:041854004006E693D1
:0418580000D1262372
:04185C0090898613D6
:0418600000090593E3
:0418640000048513E4
:04186800BD5FF0EF81
:04186C0000C106931E
:041870009049861302
:0418740000090593CF
:0418780000048513D0
:04187C00B15FF0EF79
:0418800000AA179310
:0418840000EA17134C
:0418880000E7E7B3DB
:04188C0000C127036D
:04189000FF0006B798
:041894000FF6869332
:0418980000D77733CB
:04189C0000E7E7B3C7
:0418A000012A1713EF
:0418A40000E7E7B3BF
:0418A800016A1A13A4
:0418AC000147E7B356
:0418B0000084171386
:0418B40000E7E7B3AF
:0418B80000C417133E
:0418BC0000E7E7B3A7
:0418C00001041713F5
:0418C40000E7E7B39F
:0418C800014416932E
:0418CC0000D7E6B3A8
:0418D00090498613A2
:0418D400000905936F
:0418D8000004851370
:0418DC00B61FF0EF54
:0418E00002C120839E
:0418E4000281240356
:0418E8000241248312
:0418EC0002012903C9
:0418F00001C1298386
:0418F40001812A0341
:0418F80003010113D4
:0418FC000000806701
:04190000FE010113D0
:0419040000112E237D
:0419080000812C230B
:04190C0000912A23F9
:041910000121282366
:0419140000050413B3
:0419180000058493AF
:04191C00000126237D
:0419200002060A634E
:04192400000609139D
:0419280000C1069361
:04192C00000016376A
:041930009006061304
:04193400A5DFF0EF4C
:041938000010079301
:04193C0002F91E632B
:0419400000C1268339
:04194400FFFF87B763
:04194800FFF787938B
:04194C0000F6F6B3F8
:041950000340006FE1
:0419540000000693F6
:04195800000019373B
:04195C00A0090613C5
:04196000ADDFF0EF18
:0419640000C1069325
:0419680090090613C9
:04196C00000485935B
:041970000004051357
:04197400A1DFF0EF10
:04197800000086B72E
:04197C0000C12783FC
:0419800000F6E6B3D4
:041984000000163712
:0419880090060613AC
:04198C00000485933B
:041990000004051337
:04199400AA9FF0EF27
:0419980001C12083E6
:04199C00018124039E
:0419A000014124835A
:0419A4000101290311
:0419A8000201011324
:0419AC000000806750
:0419B000FF0101131F
:0419B40000112623D5
:0419B8000081242363
:0419BC000091222351
:0419C0000005041307
:0419C4000005849303
:0419C8000000061302
:0419CC00ABDFF0EFAE
:0419D00000100613EA
:0419D40000048593F3
:0419D80000040513EF
:0419DC00AADFF0EF9F
:0419E00000048593E7
:0419E40000040513E3
:0419E800B0DFF0EF8D
:0419EC0000048593DB
:0419F00000040513D7
:0419F400B6DFF0EF7B
:0419F80000048593CF
:0419FC0000040513CB
:041A0000BB1FF0EF29
:041A040000100613B5
:041A080000048593BE
:041A0C0000040513BA
:041A1000CA9FF0EF8A
:041A14000010069325
:041A180000100613A1
:041A1C0000048593AA
:041A200000040513A6
:041A2400DF1FF0EFE1
:041A280000000613A1
:041A2C00000485939A
:041A30000004051396
:041A3400ECDFF0EF04
:041A380000C1208346
:041A3C0000812403FE
:041A400000412483BA
:041A44000101011388
:041A480000008067B3
:041A4C00FE01011383
:041A500000112E2330
:041A540000812C23BE
:041A580000912A23AC
:041A5C00000504136A
:041A60000005849366
:041A640000C1069324
:041A680030C0061371
:041A6C00925FF0EFA6
:041A7000800006B735
:041A740000C1278303
:041A780000F6E6B3DB
:041A7C0030C006135D
:041A80000004859346
:041A84000004051342
:041A88009B5FF0EF81
:041A8C0001C12083F1
:041A900001812403A9
:041A94000141248365
:041A98000201011333
:041A9C00000080675F
:041AA000FE0101132F
:041AA40000112E23DC
:041AA80000812C236A
:041AAC0000912A2358
:041AB0000005041316
:041AB4000005849312
:041AB80000C10693D0
:041ABC0015000613F8
:041AC0008D1FF0EF97
:041AC400001006B751
:041AC80000C12783AF
:041ACC0000F6E6B387
:041AD00000D12623F8
:041AD40015000613E0
:041AD80000048593EE
:041ADC0000040513EA
:041AE00095DFF0EFAF
:041AE40000C10693A4
:041AE80066800613FB
:041AEC0000048593DA
:041AF00000040513D6
:041AF40089DFF0EFA7
:041AF80000C1268380
:041AFC000016E69357
:041B000000D12623C7
:041B040066800613DE
:041B080000048593BD
:041B0C0000040513B9
:041B100092DFF0EF81
:041B140000C1069373
:041B18006740061309
:041B1C0000048593A9
:041B200000040513A5
:041B240086DFF0EF79
:041B280000C126834F
:041B2C000016E69326
:041B300000D1262397
:041B340067400613ED
:041B3800000485938D
:041B3C000004051389
:041B40008FDFF0EF54
:041B440000C1069343
:041B48006800061318
:041B4C000004859379
:041B50000004051375
:041B540083DFF0EF4C
:041B580000C126831F
:041B5C00FFF107B7D7
:041B6000FFF7879371
:041B640000F6F6B3DE
:041B6800000707B7B4
:041B6C0000F6E6B3E6
:041B700000D1262357
:041B740068000613EC
:041B7800000485934D
:041B7C000004051349
:041B80008BDFF0EF18
:041B840000C1069303
:041B880060400613A0
:041B8C000004859339
:041B90000004051335
:041B9400FFCFF0EFA0
:041B980000C12683DF
:041B9C000046E69386
:041BA00000D1262327
:041BA4006040061384
:041BA800000485931D
:041BAC000004051319
:041BB00088DFF0EFEB
:041BB40000C10693D3
:041BB8006840061368
:041BBC000004859309
:041BC0000004051305
:041BC400FCCFF0EF73
:041BC80000C12683AF
:041BCC00FBF6F6939B
:041BD0006840061350
:041BD40000048593F1
:041BD80000040513ED
:041BDC00861FF0EF81
:041BE00001C120839C
:041BE4000181240354
:041BE8000141248310
:041BEC0002010113DE
:041BF000000080670A
:041BF400FE010113DA
:041BF80000112E2387
:041BFC0000812C2315
:041C000000912A2302
:041C0400012128236F
:041C080000050413BC
:041C0C0000058493B8
:041C100000060913AE
:041C140000C1069372
:041C1800630006134C
:041C1C00F74FF0EF9F
:041C200000C1268356
:041C24008C06F693A1
:041C28000126E6B3F8
:041C2C004006E693F5
:041C30006300061334
:041C34000004859390
:041C3800000405138C
:041C3C00801FF0EF26
:041C400001C120833B
:041C440001812403F3
:041C480001412483AF
:041C4C000101290366
:041C50000201011379
:041C540000008067A5
:041C5800FD01011376
:041C5C000211262328
:041C600002812423B6
:041C640002912223A4
:041C68000321202311
:041C6C0001312E23F1
:041C700000050493D4
:041C740000058913CB
:041C780000060993C6
:041C7C0000068413C7
:041C800000C1069306
:041C840072000613D1
:041C8800F08FF0EFFA
:041C8C0001899793A0
:041C900001A99713FC
:041C940000E7E7B3CB
:041C980000C127035D
:041C9C000087171393
:041CA000008757134F
:041CA40000E7E7B3BB
:041CA80001C99713C4
:041CAC0000E7E7B3B3
:041CB00001E999931A
:041CB4000137E6B35B
:041CB80000D126230E
:041CBC007200061399
:041CC000000905937F
:041CC4000004851380
:041CC800F74FF0EFF3
:041CCC0000C10693BA
:041CD0007240061345
:041CD400000905936B
:041CD800000485136C
:041CDC00EB4FF0EFEB
:041CE00000C1278395
:041CE400F007F7937B
:041CE8000087E7B3D7
:041CEC0000241713A6
:041CF00000E7E7B36F
:041CF400004417137E
:041CF80000E7E7B367
:041CFC0000641693D7
:041D000000D7E6B36F
:041D04007240061310
:041D08000009059336
:041D0C000004851337
:041D1000F2CFF0EF2F
:041D140002C1208365
:041D1800028124031D
:041D1C0002412483D9
:041D20000201290390
:041D240001C129834D
:041D2800030101139F
:041D2C0000008067CC
:041D3000FE0101139C
:041D340000112E2349
:041D380000812C23D7
:041D3C000006041386
:041D400000C1069345
:041D4400E4CFF0EF09
:041D480000C12603AD
:041D4C0000040593F7
:041D50001000053743
:041D540001850513ED
:041D5800E34FE0EF86
:041D5C0001C120831E
:041D600001812403D6
:041D64000201011364
:041D68000000806790
:041D6C00FF0101135F
:041D70000011262315
:041D740000812423A3
:041D78000091222391
:041D7C0001212023FE
:041D80000005041343
:041D8400000684933E
:041D880000B502237D
:041D8C0000C502A3E9
:041D90000086561360
:041D940000C5032360
:041D9800002007938D
:041D9C0000F50AA3A1
:041DA0000010091313
:041DA40001250B23E7
:041DA800FB5FE0EF0E
:041DAC0001250E639C
:041DB00000C12083CB
:041DB4000081240383
:041DB800004124833F
:041DBC0000012903F6
:041DC0000101011309
:041DC4000000806734
:041DC800004007933D
:041DCC0000F40AA372
:041DD00000040B23DD
:041DD40000040513EF
:041DD80087CFF0EFD2
:041DDC0000544783E5
:041DE00000F4A02348
:041DE400006447034D
:041DE8000087171346
:041DEC0000F7673362
:041DF00000E4A02348
:041DF40000744783AD
:041DF80001079793B5
:041DFC0000E7E7B362
:041E000000F4A02327
:041E0400008447030C
:041E08000187171324
:041E0C0000F767B3C1
:041E100000F4A02317
:041E1400F9DFF06F93
:041E1800FE010113B3
:041E1C0000112E2360
:041E200000812C23EE
:041E240000912A23DC
:041E28000121282349
:041E2C0000C1069358
:041E30005100061344
:041E3400F39FF0EF39
:041E3800000504930A
:041E3C0000C1258339
:041E40000085D9132D
:041E440001C5F413CD
:041E4800100005374A
:041E4C0003C50513B2
:041E5000D3CFE0EF1D
:041E54000FF97713F8
:041E580003200793C9
:041E5C0004F7006324
:041E60000FF975936E
:041E6400100005372E
:041E680005850513D4
:041E6C00D20FE0EFC2
:041E700000040593D2
:041E7400100005371E
:041E780006850513C3
:041E7C00D10FE0EFB3
:041E800000048513C2
:041E840001C12083F5
:041E880001812403AD
:041E8C000141248369
:041E90000101290320
:041E94000201011333
:041E9800000080675F
:041E9C0010000537F6
:041EA00005450513DC
:041EA400CE8FE0EF0E
:041EA800FC9FF06F3C
:041EAC00FF0101131E
:041EB00000112623D4
:041EB40000B5022350
:041EB80000C502A3BC
:041EBC000086561333
:041EC00000C5032333
:041EC40000D503A39F
:041EC8000086D713A6
:041ECC0000E5042306
:041ED0000106D7131D
:041ED40000E504A37E
:041ED8000186D69316
:041EDC0000D5052305
:041EE0000060071384
:041EE40000E50AA368
:041EE800E75FE0EFE1
:041EEC0000C120838E
:041EF00001010113D8
:041EF4000000806703
:041EF800FF010113D2
:041EFC000011262388
:041F0000000176B7AF
:041F040000E68693DA
:041F0800504006132C
:041F0C00FA1FF0EFD9
:041F100000C1208369
:041F140001010113B3
:041F180000008067DE
:041F1C00FF010113AD
:041F20000011262363
:041F240000812423F1
:041F280000912223DF
:041F2C00012120234C
:041F30000005041391
:041F3400000584938D
:041F380000017937F4
:041F3C0015E906930A
:041F400050400613F4
:041F4400F69FF0EF25
:041F480005E906930E
:041F4C0050400613E8
:041F50000004859371
:041F5400000405136D
:041F5800F55FF0EF52
:041F5C0000C120831D
:041F600000812403D5
:041F64000041248391
:041F68000001290348
:041F6C00010101135B
:041F70000000806786
:041F7400FF01011355
:041F7800001126230B
:041F7C000081242399
:041F80000091222387
:041F8400000504133D
:041F88000005849339
:041F8C0001000693B7
:041F900035000613FF
:041F9400F19FF0EFDA
:041F9800198916B7D6
:041F9C00F0F6869342
:041FA00000002637E0
:041FA4006146061379
:041FA8000004859319
:041FAC000004051315
:041FB000EFDFF0EF80
:041FB40000C12083C5
:041FB800008124037D
:041FBC000041248339
:041FC0000101011307
:041FC4000000806732
:041FC800FF01011301
:041FCC0000112623B7
:041FD0000081242345
:041FD4000091222333
:041FD80001212023A0
:041FDC0000050413E5
:041FE00000058493E1
:041FE400222226B7D8
:041FE800A506869331
:041FEC0024C00613F4
:041FF000EBDFF0EF44
:041FF4000000193799
:041FF800866906935D
:041FFC0090890613AF
:0420000000048593C0
:0420040000040513BC
:04200800EA5FF0EFAC
:04200C00040206B70D
:0420100090C906135A
:0420140000048593AC
:0420180000040513A8
:04201C00E91FF0EFD9
:0420200050000693D3
:042024000000293758
:04202800340906135E
:04202C000004859394
:042030000004051390
:04203400E79FF0EF43
:0420380050000693BB
:04203C00540906132A
:042040000004859380
:04204400000405137C
:04204800E65FF0EF70
:04204C0000C120832C
:0420500000812403E4
:0420540000412483A0
:042058000001290357
:04205C00010101136A
:042060000000806795
:04206400FF01011364
:04206800001126231A
:04206C0000812423A8
:042070000091222396
:04207400000504134C
:042078000005849348
:04207C006010069357
:042080001D800613A6
:04208400E29FF0EFF8
:04208800000056B747
:04208C000116869320
:0420900066000613CD
:04209400000485932C
:042098000004051328
:04209C00E11FF0EF61
:0420A0000010069393
:0420A40067C00613F8
:0420A8000004859318
:0420AC000004051314
:0420B000DFDFF0EF8F
:0420B40000C12083C4
:0420B800008124037C
:0420BC000041248338
:0420C0000101011306
:0420C4000000806731
:0420C800FF01011300
:0420CC0000112623B6
:0420D0000081242344
:0420D4000091222332
:0420D80000050413E8
:0420DC0000058493E4
:0420E000D39FF0EFAB
:0420E40000048593DC
:0420E80000040513D8
:0420EC00E0DFF0EF52
:0420F00000048593D0
:0420F40000040513CC
:0420F800E25FF0EFC4
:0420FC0000048593C4
:0421000000040513BF
:04210400E71FF0EFF2
:0421080000048593B7
:04210C0000040513B3
:04211000EB9FF0EF62
:0421140000048593AB
:0421180000040513A7
:04211C00F49FF0EF4D
:0421200000C1208357
:04212400008124030F
:0421280000412483CB
:04212C000101011399
:0421300000008067C4
:04213400FF01011393
:042138000011262349
:04213C004660069360
:04214000000016374E
:042144009086061368
:04214800D65FF0EF7F
:04214C0000C120832B
:042150000101011375
:0421540000008067A0
:04215800FD01011371
:04215C000211262323
:0421600002812423B1
:04216400029122239F
:04216800032120230C
:04216C0001312E23EC
:0421700001412C23DA
:0421740000050493CB
:0421780000058913C2
:04217C000006041342
:0421800000068A13B8
:0421840000C10693FD
:04218800000019B783
:04218C0090498613DD
:04219000BDDFF0EFD0
:0421940000AA1793F3
:0421980000EA17132F
:04219C0000E7E7B3BE
:0421A00000C1270350
:0421A400FF0006B77B
:0421A8000FF6869315
:0421AC0000D77733AE
:0421B00000E7E7B3AA
:0421B400012A1713D2
:0421B80000E7E7B3A2
:0421BC00016A1A1387
:0421C0000147E7B339
:0421C4000084171369
:0421C80000E7E7B392
:0421CC0000C4171321
:0421D00000E7E7B38A
:0421D40001041713D8
:0421D80000E7E7B382
:0421DC000144169311
:0421E00000D7E6B38B
:0421E4009049861385
:0421E8000009059352
:0421EC000004851353
:0421F000CBDFF0EF62
:0421F40002C1208381
:0421F8000281240339
:0421FC0002412483F5
:0422000002012903AB
:0422040001C1298368
:0422080001812A0323
:04220C0003010113B6
:0422100000008067E3
:04221400FE010113B3
:0422180000112E2360
:04221C0000812C23EE
:0422200000912A23DC
:042224000121282349
:042228000005041396
:04222C000005849392
:0422300000C1069350
:042234001500061378
:04223800B35FF0EFB1
:04223C0000C12903B1
:04224000000086B75D
:0422440000D966B3A4
:042248001500061364
:04224C000004859372
:04225000000405136E
:04225400C59FF0EF43
:04225800FFFF86B747
:04225C00FFF6869370
:0422600000D976B378
:042264001500061348
:042268000004859356
:04226C000004051352
:04227000C3DFF0EFE9
:0422740001C1208301
:0422780001812403B9
:04227C000141248375
:04228000010129032C
:04228400020101133F
:04228800000080676B
:04228C00FE0101133B
:0422900000112E23E8
:0422940000812C2376
:042298000006041325
:04229C0000C10693E4
:0422A000ACDFF0EFD0
:0422A40000C126034C
:0422A8000004059396
:0422AC0010000537E2
:0422B0000785051386
:0422B4008D8FE0EF3B
:0422B80001C12083BD
:0422BC000181240375
:0422C0000201011303
:0422C400000080672F
:0422C800FF010113FE
:0422CC0000112623B4
:0422D0000081242342
:0422D4000091222330
:0422D800012120239D
:0422DC0000050413E2
:0422E0000005891359
:0422E4000046149309
:0422E80000C4E4B397
:0422EC000FF4F49364
:0422F00000B5022310
:0422F400010007934B
:0422F80000F502A348
:0422FC000095032323
:04230000002007931F
:0423040000F50AA333
:04230800A55FE0EFFE
:04230C000010079323
:0423100002F500636F
:0423140000000513AD
:0423180000C120835D
:04231C000081240315
:0423200000412483D1
:042324000001290388
:04232800010101139B
:04232C0000008067C6
:04233000012402235F
:0423340001100793FA
:0423380000F402A308
:04233C0000940323E3
:0423400000200793DF
:0423440000F40AA3F4
:042348000004051375
:04234C00A11FE0EFFE
:04235000FFF505137D
:042354000015351328
:04235800FC1FF06F07
:04235C00FF01011369
:04236000001126231F
:0423640000812423AD
:04236800009122239B
:04236C000121202308
:04237000000504134D
:0423740000068913C3
:0423780000B5022387
:04237C0000C502A3F3
:0423800000100493B2
:0423840000950AA313
:0423880000950B238E
:04238C009D1FE0EFC2
:0423900000950E6343
:0423940000C12083E1
:042398000081240399
:04239C000041248355
:0423A000000129030C
:0423A400010101131F
:0423A800000080674A
:0423AC000010079383
:0423B00000F40AA388
:0423B40000040B23F3
:0423B8000004051305
:0423BC00A99FE0EF06
:0423C00000544783FB
:0423C40000F90023F9
:0423C800FCDFF06FD7
:0423CC00FE010113FA
:0423D00000112E23A7
:0423D40000812C2335
:0423D80000912A2323
:0423DC0000050413E1
:0423E00000058493DD
:0423E40000F106936B
:0423E80000A0061338
:0423EC00F71FF0EFF8
:0423F000001007933F
:0423F40000F50E637F
:0423F80000000513C9
:0423FC0001C1208378
:04240000018124032F
:0424040001412483EB
:0424080002010113B9
:04240C0000008067E5
:0424100000F147830D
:04241400FFC7F79374
:0424180001A7E7939E
:04241C000094022303
:0424200000A00713FE
:0424240000E402A32B
:0424280000F4032396
:04242C0000200793F2
:0424300000F40AA307
:042434000004051388
:04243800925FE0EFE0
:04243C00FFF5051390
:04244000001535133B
:04244400FB9FF06F9B
:04244800FE0101137D
:04244C0000112E232A
:0424500000812C23B8
:0424540000912A23A6
:042458000121282313
:04245C000005041360
:04246000000584935C
:042464000006091352
:0424680000F10693E6
:04246C000130061322
:04247000EEDFF0EFBC
:0424740000100793BA
:0424780004F51E63E6
:04247C0004090663E6
:0424800000F147839D
:0424840007F7F793CC
:042488000094022397
:04248C000130071301
:0424900000E402A3BF
:0424940000F403232A
:042498000020079386
:04249C0000F40AA39B
:0424A000000405131C
:0424A4008B9FE0EF3B
:0424A800FFF5051324
:0424AC0000153513CF
:0424B00001C12083C3
:0424B400018124037B
:0424B8000141248337
:0424BC0001012903EE
:0424C0000201011301
:0424C400000080672D
:0424C80000F1478355
:0424CC000807E79383
:0424D000FB9FF06F0F
:0424D40000000513EC
:0424D800FD9FF06F05
:0424DC00FF010113E8
:0424E000001126239E
:0424E400008124232C
:0424E800009122231A
:0424EC000121202387
:0424F00000050413CC
:0424F40000058493C8
:0424F80000060913BE
:0424FC00ED1FF0EFF1
:0425000000100613AE
:0425040000048593B7
:0425080000040513B3
:04250C00F3DFF0EF1A
:0425100000090613A5
:0425140000048593A7
:0425180000040513A3
:04251C00DADFF0EF23
:0425200000C1208353
:04252400008124030B
:0425280000412483C7
:04252C00000129037E
:042530000101011391
:0425340000008067BC
:04253800FF0101138B
:04253C000011262341
:0425400000B50223BD
:0425440000C502A329
:0425480000D5032394
:04254C000020071351
:0425500000E50AA3F5
:04255400809FE0EF95
:0425580000C120831B
:04255C000101011365
:042560000000806790
:04256400FF0101135F
:042568000011262315
:04256C0000812423A3
:042570000091222391
:0425740001212023FE
:042578000005041343
:04257C0000068913B9
:0425800000B502237D
:0425840000C502A3E9
:0425880000100493A8
:04258C0000950AA309
:0425900000950B2384
:04259400FC8FE0EFE9
:0425980000950E6339
:04259C0000C12083D7
:0425A000008124038F
:0425A400004124834B
:0425A8000001290302
:0425AC000101011315
:0425B0000000806740
:0425B4000010079379
:0425B80000F40AA37E
:0425BC0000040B23E9
:0425C00000040513FB
:0425C400891FE0EF9C
:0425C80000544783F1
:0425CC0000F90023EF
:0425D000FCDFF06FCD
:0425D400FE010113F0
:0425D80000112E239D
:0425DC0000812C232B
:0425E00000912A2319
:0425E40000050413D7
:0425E80000058493D3
:0425EC0000F1069361
:0425F0000F000613BF
:0425F400F71FF0EFEE
:0425F80000F1069355
:0425FC000F100613A3
:0426000000048593BA
:0426040000040513B6
:04260800F5DFF0EF1B
:04260C0000F1450391
:04261000FD7505133C
:042614000015351365
:0426180001C1208359
:04261C000181240311
:0426200001412483CD
:04262400020101139B
:0426280000008067C7
:04262C00FE01011397
:0426300000112E2344
:0426340000812C23D2
:0426380000912A23C0
:04263C00000504137E
:04264000000584937A
:0426440000F1069308
:04264800084006132D
:04264C00F19FF0EF1B
:0426500000F14783CB
:042654000047E793C1
:0426580000940223C5
:04265C00F840071328
:0426600000E402A3ED
:0426640000F4032358
:0426680000200793B4
:04266C0000F40AA3C9
:04267000000405134A
:04267400EE8FE0EF16
:0426780001C12083F9
:04267C0001812403B1
:04268000014124836D
:04268400020101133B
:042688000000806767
:04268C00FF01011336
:0426900000112623EC
:04269400008124237A
:042698000091222368
:04269C00000504131E
:0426A000000584931A
:0426A400F31FF0EF41
:0426A8000004859312
:0426AC00000405130E
:0426B000F7DFF0EF71
:0426B40000C12083BE
:0426B8000081240376
:0426BC000041248332
:0426C0000101011300
:0426C400000080672B
:0426C800FF010113FA
:0426CC0000112623B0
:0426D00000B502232C
:0426D40000C502A398
:0426D80000D5032303
:0426DC0000200713C0
:0426E00000E50AA364
:0426E400E78FE0EFAD
:0426E80000C120838A
:0426EC0001010113D4
:0426F00000008067FF
:0426F40000050023BA
:0426F800000500A336
:0426FC0000050123B1
:0427000000B52223DB
:0427040000C52423C5
:0427080000D52623AF
:04270C0002E5282397
:0427100002F52A2381
:0427140003052C236A
:04271800000528236D
:04271C00020520236F
:0427200002050E237D
:0427240002050EA3F9
:0427280000008067C6
:04272C0000059E63A3
:042730000046061346
:042734000026161352
:0427380000C506339F
:04273C0000D622237E
:0427400000E51E236F
:0427440000008067AA
:0427480000860613EE
:04274C00002616133A
:0427500000C5063387
:0427540000D6222366
:0427580002E516235D
:04275C000000806792
:04276000FF01011361
:042764000011262317
:0427680000059E6367
:04276C000385258339
:0427700000452503F8
:04277400A50FE0EFDE
:0427780000C12083F9
:04277C000101011343
:04278000000080676E
:042784000385258321
:0427880000452503E0
:04278C00A44FE0EF87
:04279000FE9FF06F49
:04279400FF0101132D
:0427980000112623E3
:04279C00001547835A
:0427A00004500713C7
:0427A40000E78C635B
:0427A800099007137A
:0427AC0002E78A6353
:0427B00000C12083C1
:0427B400010101130B
:0427B8000000806736
:0427BC000150059330
:0427C0000085250368
:0427C400E11FE0EF42
:0427C8000010079363
:0427CC00FEF502E331
:0427D00010000537B9
:0427D40009C505131B
:0427D800BB5FD0EF24
:0427DC00FD5FF06F3E
:0427E000014005931C
:0427E4000085250344
:0427E800A2DFF0EF8D
:0427EC00001007933F
:0427F000FCF500E311
:0427F4001000053795
:0427F8000BC50513F5
:0427FC00B91FD0EF42
:04280000FB1FF06F5B
:04280400FF010113BC
:042808000011262372
:04280C0000000613AF
:0428100004700593B8
:042814000085250313
:04281800C31FF0EFFB
:04281C0000C1208354
:04282000010101139E
:0428240000008067C9
:04282800FE01011399
:04282C0000112E2346
:0428300000812C23D4
:042834000005041384
:042838001000053750
:04283C000DC50513AE
:04284000B4DFD0EF42
:0428440000F1069306
:0428480000A00613D3
:04284C00047005937C
:0428500000842503D8
:04285400B09FF0EF52
:042858001000053730
:04285C000F4505130C
:04286000B2DFD0EF24
:0428640000F10693E6
:042868000100061352
:04286C00047005935C
:0428700000842503B8
:04287400AE9FF0EF34
:042878001000053710
:04287C00100505132B
:04288000B0DFD0EF06
:0428840000F10693C6
:042888000110061322
:04288C00047005933C
:042890000084250398
:04289400AC9FF0EF16
:0428980010000537F0
:04289C0010C505134B
:0428A000AEDFD0EFE8
:0428A40000F10693A6
:0428A80001200613F2
:0428AC00047005931C
:0428B0000084250378
:0428B400AA9FF0EFF8
:0428B80010000537D0
:0428BC00118505136A
:0428C000ACDFD0EFCA
:0428C40000F1069386
:0428C80001300613C2
:0428CC0004700593FC
:0428D0000084250358
:0428D400A89FF0EFDA
:0428D80010000537B0
:0428DC001245051389
:0428E000AADFD0EFAC
:0428E40001C120838B
:0428E8000181240343
:0428EC0002010113D1
:0428F00000008067FD
:0428F4000005450393
:0428F80000008067F5
:0428FC00000545038B
:04290000FDD50513E9
:042904000015351372
:0429080000008067E4
:04290C0000B50533DA
:042910000015450366
:0429140000008067D8
:0429180000B50533CE
:04291C0000C500A34F
:0429200000008067CC
:04292400FF0101139B
:042928000011262351
:04292C0000B50223CD
:04293000000502A3F9
:042934000005032374
:0429380004D00713AD
:04293C0000E503A30C
:042940000470071305
:0429440000E5042383
:0429480000C504A31F
:04294C00005007131D
:0429500000E50AA3F1
:04295400C08FE0EF61
:0429580000C1208317
:04295C000101011361
:04296000000080678C
:04296400FF0101135B
:042968000011262311
:04296C00008124239F
:04297000009122238D
:0429740001212023FA
:0429780000050493BF
:04297C0000058413BB
:042980001000053707
:04298400130505131F
:04298800A05FD0EF8D
:04298C000460079349
:042990000287EA636D
:042994000210079393
:042998001887F66343
:04299C00FDE404133F
:0429A0000FF47713A6
:0429A4000240079353
:0429A80016E7EE63DD
:0429AC0000271413D9
:0429B000100007B755
:0429B40035078793C9
:0429B80000F40433F0
:0429BC000004278369
:0429C0000007806725
:0429C40007900793DE
:0429C8000CF40663A2
:0429CC000940079324
:0429D00002F4146396
:0429D40010000537B3
:0429D8001745051387
:0429DC009B1FD0EF7E
:0429E0000940061391
:0429E40005700593E2
:0429E8000084A503BF
:0429EC00F39FF0EF76
:0429F00000050913C2
:0429F4000500006F6B
:0429F80007800793BA
:0429FC0012F414635A
:042A00001000053786
:042A040015C50513DC
:042A0800985FD0EF14
:042A0C000780061326
:042A100005700593B5
:042A14000084A50392
:042A1800F0DFF0EF0C
:042A1C000005091395
:042A20000240006F01
:042A24001000053762
:042A28001445051339
:042A2C00961FD0EF32
:042A30000450061335
:042A340005300593D1
:042A38000084A5036E
:042A3C00EE9FF0EF2A
:042A40000005091371
:042A440000100793E4
:042A48000EF906631A
:042A4C00100005373A
:042A5000798505136C
:042A5400939FD0EF8D
:042A580000C1208316
:042A5C0000812403CE
:042A6000004124838A
:042A64000001290341
:042A68000101011354
:042A6C00000080677F
:042A70001000053716
:042A7400150505132C
:042A7800915FD0EFAB
:042A7C0004600613D9
:042A80000530059385
:042A84000084A50322
:042A8800E9DFF0EFA3
:042A8C000005091325
:042A9000FB5FF06F89
:042A940010000537F2
:042A98001685051387
:042A9C008F1FD0EFC9
:042AA0000790061382
:042AA4000570059321
:042AA8000084A503FE
:042AAC00E79FF0EFC1
:042AB0000005091301
:042AB400F91FF06FA7
:042AB80010000537CE
:042ABC0018050513E1
:042AC0008CDFD0EFE8
:042AC40003400613B2
:042AC80005700593FD
:042ACC000084A503DA
:042AD000E55FF0EFDF
:042AD40000050913DD
:042AD800F6DFF06FC6
:042ADC0010000537AA
:042AE00018C50513FD
:042AE4008A9FD0EF06
:042AE80002200613AF
:042AEC000500059349
:042AF0000084A503B6
:042AF400E31FF0EFFD
:042AF80000050913B9
:042AFC00F49FF06FE4
:042B00001000053785
:042B04001A05051396
:042B0800885FD0EF23
:042B0C00023006137A
:042B10000500059324
:042B14000084A50391
:042B1800E0DFF0EF1B
:042B1C000005091394
:042B2000F25FF06F01
:042B24001000053761
:042B28001B45051331
:042B2C00861FD0EF41
:042B3000F15FF06FF2
:042B34001000053751
:042B38001C45051320
:042B3C00851FD0EF32
:042B4000F19FF06FA2
:042B4400FF01011379
:042B4800001126232F
:042B4C0000812423BD
:042B50000005041365
:042B540000B50223A3
:042B5800000502A3CF
:042B5C00000503234A
:042B600000200793B7
:042B640000F50AA3CB
:042B680000050B2336
:042B6C009F0FE0EFE8
:042B70000030079397
:042B740000F40AA3BC
:042B780000040B2327
:042B7C000004051339
:042B8000AD4FE0EF86
:042B840000100793A3
:042B880000F50A63E7
:042B8C0000C12083E1
:042B90000081240399
:042B94000101011327
:042B98000000806752
:042B9C0000442503C9
:042BA000010007B772
:042BA400F00787931C
:042BA80000F575338C
:042BAC00FFB8B7B700
:042BB00030078793D0
:042BB40000F50533F0
:042BB80000153513BC
:042BBC00FD1FF06F9A
:042BC000FD010113FF
:042BC40002112623B1
:042BC800028124233F
:042BCC00029122232D
:042BD000032120239A
:042BD40001312E237A
:042BD80001412C2368
:042BDC0001512A2356
:042BE0000161282344
:042BE4000171262332
:042BE8000181242320
:042BEC00019122230E
:042BF0000005049345
:042BF4001000053791
:042BF8001C85051320
:042BFC00F90FD0EF0E
:042C00000500059333
:042C04000084A503A0
:042C0800F3DFF0EF17
:042C0C00001007931A
:042C100004F518634C
:042C14000084A7830E
:042C18000077C783F7
:042C1C0000F480231D
:042C20000220071374
:042C240000E78E63D4
:042C2800023007135C
:042C2C0002E78263D6
:042C30001000053754
:042C34001EC50513A1
:042C3800F54FD0EF95
:042C3C000300006F22
:042C40001000053744
:042C44001DC5051392
:042C4800F44FD0EF86
:042C4C000200006F13
:042C50001000053734
:042C54001E45051301
:042C5800F34FD0EF77
:042C5C000100006F04
:042C60001000053724
:042C64001F850513B0
:042C6800F24FD0EF68
:042C6C00000004134D
:042C700010000A370F
:042C740000100993B0
:042C780007800913B5
:042C7C0007900C931E
:042C800009400C13E8
:042C840004500B935A
:042C880004600B13C6
:042C8C0003400A9364
:042C90000880006F49
:042C940005579E63DF
:042C980010000537EC
:042C9C002385051374
:042CA000EECFD0EFB4
:042CA4000680006F37
:042CA80003978463A7
:042CAC0005879263A3
:042CB00010000537D4
:042CB40024050513DB
:042CB800ED4FD0EF1D
:042CBC000500006FA0
:042CC00010000537C4
:042CC400218505134E
:042CC800EC4FD0EF0E
:042CCC000400006F91
:042CD00010000537B4
:042CD40022050513BD
:042CD800EB4FD0EFFF
:042CDC000300006F82
:042CE00010000537A4
:042CE400228505132D
:042CE800EA4FD0EFF0
:042CEC000200006F73
:042CF0001000053794
:042CF400248505131B
:042CF800E94FD0EFE1
:042CFC000100006F64
:042D00001000053783
:042D04002545051349
:042D0800E84FD0EFD1
:042D0C000014041398
:042D10000020079305
:042D140004F40E6352
:042D1800000405931B
:042D1C00204A051331
:042D2000E6CFD0EF3B
:042D24000FF47593A0
:042D280000B035B30F
:042D2C000025959356
:042D3000053585934D
:042D34000084A5036F
:042D3800E0DFF0EFF9
:042D3C00FD3512E36C
:042D40000084A783E1
:042D44000077C783CA
:042D48000084873349
:042D4C0000F700A3E9
:042D5000F72788E3F6
:042D5400F4F96AE341
:042D5800F97784E3A0
:042D5C00F3679CE39A
:042D60001000053723
:042D6400230505132B
:042D6800E24FD0EF77
:042D6C00FA1FF06FEB
:042D700002C12083F9
:042D740002812403B1
:042D7800024124836D
:042D7C000201290324
:042D800001C12983E1
:042D840001812A039C
:042D880001412A8358
:042D8C0001012B0313
:042D900000C12B83D0
:042D940000812C038B
:042D980000412C8347
:042D9C00030101131B
:042DA0000000806748
:042DA400FF01011317
:042DA80000112623CD
:042DAC0000B5022349
:042DB00000C502A3B5
:042DB40000D5032320
:042DB8000086D713A7
:042DBC0000E503A388
:042DC0000106D7131E
:042DC40000E50423FF
:042DC8000186D69317
:042DCC0000D504A387
:042DD0000050071395
:042DD40000E50AA369
:042DD800F85FD0EFE1
:042DDC0000C120838F
:042DE00001010113D9
:042DE4000000806704
:042DE800FF010113D3
:042DEC000011262389
:042DF0000081242317
:042DF4000091222305
:042DF8000121202372
:042DFC0000050413B7
:042E000000068493B1
:042E040000B50223F0
:042E080000C502A35C
:042E0C000010091396
:042E100001250AA3EB
:042E140001250B2366
:042E1800F45FD0EFA4
:042E1C0001240AA3E0
:042E200000040B237C
:042E2400000405138E
:042E280082CFE0EF86
:042E2C000054478384
:042E300000F4802307
:042E340000C1208336
:042E380000812403EE
:042E3C0000412483AA
:042E40000001290361
:042E44000101011374
:042E4800000080679F
:042E4C00FD01011370
:042E50000211262322
:042E540002812423B0
:042E5800029122239E
:042E5C00032120230B
:042E600001312E23EB
:042E640000050493CE
:042E680000058913C5
:042E6C000000263705
:042E700071060613CE
:042E740000000593C2
:042E780000C5250369
:042E7C00E21FD0EF92
:042E80000230099380
:042E84000004C783FC
:042E880003378E631B
:042E8C000044A50356
:042E9000B99FD0EF27
:042E940000A1262350
:042E980000C124034E
:042E9C000089743302
:042EA00002041E63A7
:042EA4000000059392
:042EA80000C4A503BA
:042EAC00E35FD0EF21
:042EB000FC050AE330
:042EB40010000537CE
:042EB80025C5051314
:042EBC00CD0FD0EF77
:042EC0000200006F9D
:042EC40000C10693B0
:042EC80000200613CD
:042ECC0004D0059396
:042ED0000084A503D2
:042ED400F15FF0EFCB
:042ED800FC1FF06F7C
:042EDC0000100413CB
:042EE00000040513D2
:042EE40002C1208384
:042EE800028124033C
:042EEC0002412483F8
:042EF00002012903AF
:042EF40001C129836C
:042EF80003010113BE
:042EFC0000008067EB
:042F0000FE010113BA
:042F040000112E2367
:042F080000812C23F5
:042F0C0000912A23E3
:042F10000121282350
:042F1400013126233E
:042F18000005041399
:042F1C000006049314
:042F2000000689130B
:042F24000007099306
:042F2800839FF0EFA4
:042F2C000090059379
:042F300000842503F1
:042F3400850FE0EF36
:042F380000100793EB
:042F3C0002F5006337
:042F400001C1208328
:042F440001812403E0
:042F4800014124839C
:042F4C000101290353
:042F500000C1298310
:042F54000201011362
:042F5800000080678E
:042F5C0000090693CF
:042F600000048613D0
:042F64000090059341
:042F680000842503B9
:042F6C0092CFE0EF31
:042F700000100793B3
:042F7400FCF516E36F
:042F78000009859334
:042F7C000004051335
:042F8000ECDFF0EFA3
:042F8400001007939F
:042F8800FB9FF06F4C
:042F8C00FE0101132E
:042F900000112E23DB
:042F940000812C2369
:042F980000912A2357
:042F9C0001212823C4
:042FA00001312623B2
:042FA400000504130D
:042FA8000005849309
:042FAC0000054703D2
:042FB0000220079361
:042FB40004F70E63AD
:042FB8000024478327
:042FBC000780071370
:042FC0000CE7806337
:042FC4000790071358
:042FC8000EE7866327
:042FCC000014478323
:042FD000045007138F
:042FD4000EE78A6317
:042FD8000990071342
:042FDC0010E78E6309
:042FE0000010079343
:042FE40000100913BD
:042FE80000F484630A
:042FEC00000989133C
:042FF00000090513BC
:042FF40001C1208374
:042FF800018124032C
:042FFC0001412483E8
:04300000010129039E
:0430040000C129835B
:0430080002010113AD
:04300C0000008067D9
:04301000030527038A
:0430140001452683C9
:0430180001C5560395
:04301C000000059318
:04302000EE1FF0EFC0
:043024000005091387
:0430280000100793FA
:04302C0000F5046344
:0430300004048063B1
:043034000344270327
:0430380002442683A5
:04303C0002C4560371
:0430400000100593E4
:04304400000405136C
:04304800EB9FF0EF1B
:04304C0000050993DF
:0430500000100793D2
:04305400F6F502E3A8
:04305800F60490E307
:04305C001000053724
:0430600029C5051366
:04306400B28FD0EF68
:0430680000098913BF
:04306C00F85FF06FAA
:043070001000053710
:0430740027450513D4
:04307800B14FD0EF95
:04307C00F75FF06F9B
:043080000010061323
:04308400047005933C
:043088000084250398
:04308C00C50FF0EF8D
:04309000000509939B
:04309400001007938E
:04309800F2F50AE360
:04309C00F20498E3BF
:0430A00010000537E0
:0430A4002C8505135F
:0430A800AE4FD0EF68
:0430AC00000989137B
:0430B000F41FF06FAA
:0430B40001800593FF
:0430B8000084250368
:0430BC00DD0FF0EF45
:0430C000000509936B
:0430C400F09FF06F1A
:0430C800015005931B
:0430CC000084250354
:0430D0008E1FE0EF80
:0430D4000005099357
:0430D800001007934A
:0430DC00F0F502E326
:0430E000F00490E385
:0430E400100005379C
:0430E8002E45051359
:0430EC00AA0FD0EF68
:0430F0000009891337
:0430F400EFDFF06FAB
:0430F80001400593FB
:0430FC000084250324
:04310000FC9FE0EF61
:043104000005099326
:043108000010079319
:04310C00ECF50AE3F1
:04311000EC0498E350
:04311400100005376B
:043118003045051326
:04311C00A70FD0EF3A
:043120000009891306
:04312400ECDFF06F7D
:04312800FF0101138F
:04312C000011262345
:043130000305270369
:0431340001452683A8
:0431380001C5560374
:04313C0000000593F7
:04314000DC1FF0EFB1
:0431440000C1208323
:04314800010101136D
:04314C000000806798
:0431500001052783CB
:0431540012B78663C5
:04315800FF0101135F
:04315C000011262315
:0431600000812423A3
:043164000091222391
:043168000005041347
:04316C000005849343
:0431700000B528235B
:043174000005470308
:043178000230079387
:04317C0004F70863E9
:04318000000427B769
:04318400EB0787933B
:0431880006F5846361
:04318C0003C54783AD
:043190000807906339
:04319400000005939F
:043198000004051317
:04319C00DC4FF0EF25
:0431A000000147B72C
:0431A400C6878793C0
:0431A80008F4826342
:0431AC00000217B74F
:0431B000F587879385
:0431B40008F4806338
:0431B80010000537C7
:0431BC003245051380
:0431C0009CCFD0EFE1
:0431C40000000513EF
:0431C8000A40006F4A
:0431CC0000058693E1
:0431D00000300613B2
:0431D40004D005938B
:0431D8000085250346
:0431DC00BC9FF0EFB5
:0431E0000010059343
:0431E40000040513CB
:0431E800C65FF0EFDF
:0431EC000800006F68
:0431F00003052703A9
:0431F40001852683A8
:0431F80001C55603B4
