:020000040000FA
:040000000040006F4D
:040004000000009365
:0400080010010117CB
:04000C00FF8101135C
:040010000000019358
:0400140000000213D3
:04001800000002934F
:04001C0000000313CA
:040020000000039346
:0400240000000413C1
:04002800000004933D
:04002C0000000513B8
:040030000000059334
:0400340000000613AF
:04003800000006932B
:04003C0000000713A6
:040040000000079322
:04004400000008139D
:040048000000089319
:04004C000000091394
:040050000000099310
:0400540000000A138B
:0400580000000A9307
:04005C0000000B1382
:0400600000000B93FE
:0400640000000C1379
:0400680000000C93F5
:04006C0000000D1370
:0400700000000D93EC
:0400740000000E1367
:0400780000000E93E3
:04007C0000000F135E
:0400800000000F93DA
:04008400120060EF17
:040088000000006F05
:04008C0000B5202378
:040090000000806785
:040094000005D78309
:0400980000F512233A
:04009C000025D783E1
:0400A00000F5132331
:0400A4000045D783B9
:0400A80000F5142328
:0400AC000065D78391
:0400B00000F515231F
:0400B4000085D78369
:0400B80000F5162316
:0400BC0000A5D78341
:0400C00000F517230D
:0400C40000C5D78319
:0400C80000F5182304
:0400CC0000E5D783F1
:0400D00000F51923FB
:0400D4000105D783C8
:0400D80000F51A23F2
:0400DC000125D783A0
:0400E00000F51B23E9
:0400E4000000806731
:0400E8000005268366
:0400EC000006A783E0
:0400F000FFFFE737F0
:0400F4001FF70713D8
:0400F80000E7F7B373
:0400FC000095959343
:0401000000F5E5B36E
:0401040000B6A0237E
:040108000005278344
:04010C0000C7A22363
:040110000000806704
:04011400FF010113D3
:040118000011262389
:04011C000081242317
:0401200000050413BF
:04012400005595935A
:040128000016161394
:04012C0000B6663380
:04013000000527831C
:0401340000C7A0233D
:040138000045560325
:04013C000000059327
:04014000FA9FF0EF43
:0401440000645603FA
:04014800001005930B
:04014C000004051393
:04015000F99FF0EF34
:0401540000845603CA
:0401580000200593EB
:04015C000004051383
:04016000F89FF0EF25
:0401640000A456039A
:0401680000300593CB
:04016C000004051373
:04017000F79FF0EF16
:0401740000C456036A
:0401780000400593AB
:04017C000004051363
:04018000F69FF0EF07
:0401840000E456033A
:04018800005005938B
:04018C000004051353
:04019000F59FF0EFF8
:040194000104560309
:04019800006005936B
:04019C000004051343
:0401A000F49FF0EFE9
:0401A40001245603D9
:0401A800007005934B
:0401AC000004051333
:0401B000F39FF0EFDA
:0401B40001445603A9
:0401B800008005932B
:0401BC000004051323
:0401C000F29FF0EFCB
:0401C4000164560379
:0401C800009005930B
:0401CC000004051313
:0401D000F19FF0EFBC
:0401D40000042703F9
:0401D8000007278372
:0401DC000017E7938E
:0401E00000F72023E1
:0401E40000C12083B3
:0401E800008124036B
:0401EC0001010113F9
:0401F0000000806724
:0401F4000005278358
:0401F8000007A02339
:0401FC000000806718
:0402000000052703CB
:040204000007278345
:0402080000058A6300
:04020C00000026B711
:0402100000D7E7B379
:0402140000F72023AC
:0402180000008067FB
:04021C00FFFFE6B743
:04022000FFF68693CC
:0402240000D7F7B355
:04022800FEDFF06F96
:04022C00FC010113BD
:0402300002112E2366
:0402340002512C2324
:0402380002612A2312
:04023C000271282300
:0402400002A12623CE
:0402440002B12423BC
:0402480002C12223AA
:04024C0002D1202398
:0402500000E12E2378
:0402540000F12C2366
:0402580001012A2353
:04025C000111282341
:0402600001C126238F
:0402640001D124237D
:0402680001E122236B
:04026C0001F1202359
:040270001000D5376E
:04027400AF8505133A
:04027800434040EFD0
:04027C001000D53762
:04028000D445051349
:04028400428040EF85
:0402880003C120830B
:04028C000381228345
:040290000341230300
:0402940003012383BC
:0402980002C1250377
:04029C000281258333
:0402A00002412603EE
:0402A40002012683AA
:0402A80001C1270366
:0402AC000181278322
:0402B00001412803DD
:0402B4000101288399
:0402B80000C12E0350
:0402BC0000812E830C
:0402C00000412F03C7
:0402C40000012F8383
:0402C8000401011319
:0402CC00302000736B
:0402D00022C00793AE
:0402D400305790739C
:0402D8000080079308
:0402DC0030079073E4
:0402E000000017B74C
:0402E4008007879375
:0402E8003047907398
:0402EC000000806727
:0402F0000FF67793FB
:0402F40000100713DC
:0402F80010001637A5
:0402FC002B060613B4
:040300000010069350
:0403040002F7786321
:0403080000062703C1
:04030C0002E578632B
:04031000FFF78793D9
:040314000FF7F79355
:040318000046061382
:04031C00FED796E38F
:0403200000000713BF
:0403240000170713A4
:0403280000E5883331
:04032C00030008932F
:040330000480006FD6
:040334001000163768
:040338002B06061377
:04033C00FFF787132D
:040340000FF7771329
:04034400FE0790E33D
:040348000005881311
:04034C000008002382
:0403500000008067C2
:0403540040D7073354
:040358000017879370
:04035C000FF7F7930D
:04036000FED77AE367
:040364000007051376
:040368000015859364
:04036C00FEF58FA368
:04037000004606132A
:04037400FCB80CE3E2
:0403780000062683D2
:04037C00000507135E
:040380000008879357
:04038400FCD578E349
:04038800FE1FF06FF5
:04038C00FA0101135E
:0403900002112E2305
:0403940002812C2393
:0403980002912A2381
:04039C0003212823EE
:0403A00003312623DC
:0403A40003412423CA
:0403A80003512223B8
:0403AC0003612023A6
:0403B00001712E2386
:0403B40001812C2374
:0403B80001912A2362
:0403BC000005031322
:0403C00004B122233F
:0403C40004C1242329
:0403C80004D1262313
:0403CC0004E12823FD
:0403D00004F12A23E7
:0403D40005012C23D0
:0403D80005112E23BA
:0403DC00044107933E
:0403E00000F12623DF
:0403E40000150413E9
:0403E80000054503C4
:0403EC001805046389
:0403F0000250049320
:0403F40006300B13B1
:0403F80007800B93DC
:0403FC0006400C1398
:0404000007300C9322
:040404000180006F04
:04040800650000EF9C
:04040C0000040313D2
:0404100000130413BE
:040414000003450399
:0404180014050E6356
:04041C00FE9516E350
:040420000023099319
:0404240000134783F7
:0404280014078663CC
:04042C00049784634A
:0404300005678A636F
:04043400077786635D
:040438000F87846343
:04043C00000983131D
:04044000FD9798E3A9
:0404440000C1278349
:0404480000478713CF
:04044C0000E1262382
:040450000007A403FA
:040454000004450358
:04045800FA050CE3B2
:04045C000014041371
:040460005F8000EFCA
:040464000004450348
:04046800FE051AE390
:04046C0000098313ED
:04047000FA1FF06F10
:0404740000048513E8
:040478005E0000EF33
:04047C0000098313DD
:04048000F91FF06F01
:0404840000C1278309
:04048800004787138F
:04048C0000E1262342
:040490000007C50399
:040494005C4000EFD9
:0404980000098313C1
:04049C00F75FF06FA7
:0404A00000C12783ED
:0404A4000047871373
:0404A80000E1262326
:0404AC000007A90399
:0404B00002090863D2
:0404B400100007B776
:0404B80001C0041368
:0404BC0000F0071332
:0404C00000F97A6362
:0404C400FFC404135A
:0404C800008717B3DF
:0404CC000127F7B35A
:0404D000FE078AE3B6
:0404D40000F00A9397
:0404D80000900A1373
:0404DC000280006F2B
:0404E00003000513FD
:0404E400574000EF8E
:0404E8000009831371
:0404EC00F25FF06F5C
:0404F0000575051376
:0404F4000FF5751378
:0404F800560000EFBB
:0404FC000604086387
:04050000FFC404131D
:04050400008A9533A1
:040508000125753321
:04050C0000855533DE
:04051000FEAA60E3FC
:0405140003050513C3
:040518000FF5751353
:04051C00FDDFF06FA0
:0405200000C127836C
:0405240000478713F2
:0405280000E12623A5
:04052C0000A0061312
:04053000000105932E
:040534000007A50314
:04053800DB9FF0EF66
:04053C000001450372
:04054000020502634B
:04054400000004139C
:040548000014041384
:04054C000FF4741321
:04055000508000EFE8
:040554000104079304
:04055800002787B33E
:04055C00FF07C503CD
:04056000FE0514E39D
:0405640000098313F4
:04056800EA9FF06FA7
:04056C0000098313EC
:04057000EA1FF06F1F
:0405740003C120831C
:0405780003812403D4
:04057C000341248390
:040580000301290347
:0405840002C1298304
:0405880002812A03BF
:04058C0002412A837B
:0405900002012B0336
:0405940001C12B83F3
:0405980001812C03AE
:04059C0001412C836A
:0405A000060101133C
:0405A400000080676C
:0405A8000005102317
:0405AC000005112312
:0405B0000000806760
:0405B4000005578364
:0405B800010797930D
:0405BC000107D793C9
:0405C0003FF00713EE
:0405C40000E78E635B
:0405C8000005578350
:0405CC0000178793FA
:0405D00001079793F5
:0405D4000107D793B1
:0405D80000F51023F7
:0405DC000000806734
:0405E00000051023DF
:0405E400000080672C
:0405E8000025578310
:0405EC0001079793D9
:0405F0000107D79395
:0405F4003FF00713BA
:0405F80000E78E6327
:0405FC0000255783FC
:0406000000178793C5
:0406040001079793C0
:040608000107D7937C
:04060C0000F51123C1
:0406100000008067FF
:0406140000051123A9
:0406180000008067F7
:04061C00FF010113C6
:04062000001126237C
:040624000005570373
:0406280000E507B32F
:04062C0000B782236E
:04063000F85FF0EF90
:0406340000C120835E
:0406380001010113A8
:04063C0000008067D3
:04064000FF010113A2
:040644000011262358
:0406480000812423E6
:04064C00002557032B
:0406500000E507B307
:040654000047C40394
:04065800F91FF0EFA7
:04065C00000405137E
:0406600000C1208332
:0406640000812403EA
:040668000101011378
:04066C0000008067A3
:0406700000055783A7
:040674000025570303
:0406780040E785339F
:04067C00001535131D
:04068000000080678F
:04068400FF0101135E
:040688000011262314
:04068C0000812423A2
:04069000000504134A
:040694000005578383
:0406980000255703DF
:04069C000107979328
:0406A0000107D793E4
:0406A40002E7826384
:0406A8000004051332
:0406AC00F95FF0EF13
:0406B0003A8000EF9D
:0406B4000004578364
:0406B80000245703C0
:0406BC000107979308
:0406C0000107D793C4
:0406C400FEE792E3D8
:0406C80000C12083CA
:0406CC000081240382
:0406D0000101011310
:0406D400000080673B
:0406D8000FF677930F
:0406DC0000100713F0
:0406E00010001637B9
:0406E4002D86061346
:0406E8000010069365
:0406EC0002F7786336
:0406F00000062703D6
:0406F40002E5786340
:0406F800FFF78793EE
:0406FC000FF7F7936A
:040700000046061396
:04070400FED796E3A3
:0407080000000713D3
:04070C0000170713B8
:0407100000E5883345
:040714000300089343
:040718000480006FEA
:04071C00100016377C
:040720002D86061309
:04072400FFF7871341
:040728000FF777133D
:04072C00FE0790E351
:040730000005881325
:040734000008002396
:0407380000008067D6
:04073C0040D7073368
:040740000017879384
:040744000FF7F79321
:04074800FED77AE37B
:04074C00000705138A
:040750000015859378
:04075400FEF58FA37C
:04075800004606133E
:04075C00FCB80CE3F6
:0407600000062683E6
:040764000005071372
:04076800000887936B
:04076C00FCD578E35D
:04077000FE1FF06F09
:04077400FA01011372
:0407780002112E2319
:04077C0002812C23A7
:0407800002912A2395
:040784000321282302
:0407880003312623F0
:04078C0003412423DE
:0407900003512223CC
:0407940003612023BA
:0407980001712E239A
:04079C0001812C2388
:0407A00001912A2376
:0407A40001A1282364
:0407A80000050493B1
:0407AC0000058513AC
:0407B00004C1242339
:0407B40004D1262323
:0407B80004E128230D
:0407BC0004F12A23F7
:0407C00005012C23E0
:0407C40005112E23CA
:0407C800048107930E
:0407CC0000F12623EF
:0407D0000015841379
:0407D4000005C583D4
:0407D8001A05826319
:0407DC0002500913AB
:0407E00006300B9341
:0407E40007800C136B
:0407E80006400C9328
:0407EC0007300D13B2
:0407F00001C0006FD5
:0407F4000004851365
:0407F800E25FF0EFDD
:0407FC0000040513DD
:0408000000150413C8
:040804000005458323
:0408080016058A63E4
:04080C00FF2594E34D
:0408100000250A13A2
:040814000015478301
:0408180016078263DA
:04081C0005278663C3
:0408200005778E6367
:0408240007878C6353
:040828000F978E6335
:04082C00000A0513A6
:04083000FDA798E3A5
:0408340000C1278355
:0408380000478713DB
:04083C0000E126238E
:040840000007A40306
:0408440000044583E4
:04084800FA058CE33E
:04084C00001404137D
:040850000004851308
:04085400DC9FF0EF46
:0408580000044583D0
:04085C00FE0598E31A
:04086000000A051372
:04086400F9DFF06F59
:0408680000090593EB
:04086C0000048513EC
:04087000DADFF0EFEC
:04087400000A05135E
:04087800F89FF06F86
:04087C0000C127830D
:040880000047871393
:0408840000E1262346
:040888000007C5831D
:04088C0000048513CC
:04089000D8DFF0EFCE
:04089400000A05133E
:04089800F69FF06F68
:04089C0000C12783ED
:0408A0000047871373
:0408A40000E1262326
:0408A8000007A98319
:0408AC000209886352
:0408B000100007B776
:0408B40001C0041368
:0408B80000F0071332
:0408BC0000F9FA63E2
:0408C000FFC404135A
:0408C400008717B3DF
:0408C8000137F7B34A
:0408CC00FE078AE3B6
:0408D00000F00B1316
:0408D40000900A93F3
:0408D8000300006FAA
:0408DC00030005937D
:0408E0000004851378
:0408E400D39FF0EFBF
:0408E800000A0513EA
:0408EC00F15FF06F59
:0408F0000575859372
:0408F4000FF5F59374
:0408F8000004851360
:0408FC00D21FF0EF28
:0409000006040A637C
:04090400FFC4041315
:04090800008B15B398
:04090C000135F5B309
:040910000085D5B3D6
:04091400FCBAEEE358
:0409180003058593BB
:04091C000FF5F5934B
:04092000FD9FF06FD8
:0409240000C1278364
:0409280000478713EA
:04092C0000E126239D
:0409300000A006130A
:040934000001059326
:040938000007A5030C
:04093C00D9DFF0EF20
:0409400000014583EA
:0409440002058463C1
:040948000000041394
:04094C00001404137C
:040950000FF4741319
:040954000004851303
:04095800CC5FF0EF91
:04095C0001040793F8
:04096000002787B332
:04096400FF07C58341
:04096800FE0592E313
:04096C00000A051365
:04097000E91FF06F1C
:04097400000A05135D
:04097800E89FF06F95
:04097C0003C1208310
:0409800003812403C8
:040984000341248384
:04098800030129033B
:04098C0002C12983F8
:0409900002812A03B3
:0409940002412A836F
:0409980002012B032A
:04099C0001C12B83E7
:0409A00001812C03A2
:0409A40001412C835E
:0409A80001012D0319
:0409AC00060101132C
:0409B000000080675C
:0409B40000B5202347
:0409B8000010079391
:0409BC0000F5A2237D
:0409C000000080674C
:0409C4000005278380
:0409C80000B7AC23A5
:0409CC000000806740
:0409D0000005278374
:0409D40000B7AE2397
:0409D8000000806734
:0409DC000005278368
:0409E00002B7A02397
:0409E4000000806728
:0409E800000527835C
:0409EC0002C7A42377
:0409F0000005278354
:0409F40002B7A22381
:0409F8000000806714
:0409FC000005278348
:040A00000047A70301
:040A040000259593A1
:040A080000E5E5B36D
:040A0C0000B7A2236A
:040A100000008067FB
:040A1400000527832F
:040A18000107A5032A
:040A1C0000B5753379
:040A200000A03533CA
:040A240000008067E7
:040A2800000527831B
:040A2C0000C7A50357
:040A300000008067DB
:040A3400000527830F
:040A380000C7A5034B
:040A3C0000B5753359
:040A400000A03533AA
:040A440000008067C7
:040A480000B52023B2
:040A4C0000100793FC
:040A500000F5A023EA
:040A540000008067B7
:040A5800100007374C
:040A5C0000C7278325
:040A60000047A78321
:040A64000027F793DD
:040A6800FE079AE308
:040A6C00100007B7B8
:040A700000C7A78391
:040A740000A7A42310
:040A78000000806793
:040A7C00100007B7A8
:040A800000C7A78381
:040A84000047A5037F
:040A8800008555137D
:040A8C0000154513F9
:040A900000157513C5
:040A94000000806777
:040A9800100007370C
:040A9C0000C72783E5
:040AA0000047A783E1
:040AA4001007F793AD
:040AA800FE079AE3C8
:040AAC00100007B778
:040AB00000C7A78351
:040AB40000C7A503CF
:040AB8000FF57513AE
:040ABC00000080674F
:040AC000FE0101131F
:040AC40000112E23CC
:040AC80000812C235A
:040ACC0000912A2348
:040AD00001212823B5
:040AD40001312623A3
:040AD8000141242391
:040ADC00015122237F
:040AE000016120236D
:040AE40000000913F2
:040AE80000000B13EC
:040AEC0010000437BB
:040AF00010000A37B1
:040AF40000D0099392
:040AF80000500A930D
:040AFC000180006F06
:040B0000016484B355
:040B040001049B133A
:040B0800010B5B136F
:040B0C0000190913B0
:040B10000FF979134D
:040B140000C427836F
:040B18000047A78368
:040B1C001007F79334
:040B2000FE079AE34F
:040B240000C427835F
:040B280000C7A583DA
:040B2C000FF5F4933A
:040B300000048593A5
:040B3400014A05135A
:040B3800855FF0EFF6
:040B3C0003348A6391
:040B4000FD04849399
:040B44000FF4F49323
:040B4800FA090CE3B7
:040B4C00002B1793D0
:040B500000FB07B3EC
:040B5400001797935C
:040B5800009787B3C8
:040B5C0001079B13DF
:040B6000010B5B1317
:040B64000019091358
:040B68000FF97913F5
:040B6C00FB5914E33A
:040B7000000B05135E
:040B740001C1208318
:040B780001812403D0
:040B7C00014124838C
:040B80000101290343
:040B840000C1298300
:040B880000812A03BB
:040B8C0000412A8377
:040B900000012B0332
:040B94000201011346
:040B98000000806772
:040B9C00FD01011343
:040BA00002112623F5
:040BA4000281242383
:040BA8000291222371
:040BAC0003212023DE
:040BB00001312E23BE
:040BB40001412C23AC
:040BB80001512A239A
:040BBC000161282388
:040BC0000171262376
:040BC4000000091311
:040BC800000009938D
:040BCC0010000437DA
:040BD00010000AB750
:040BD40000D00A1330
:040BD80006000B13F5
:040BDC0000500B9327
:040BE0000240006F60
:040BE400FD048493F5
:040BE8000FF4F4937F
:040BEC000500006F91
:040BF000013484B395
:040BF40001049993CC
:040BF8000109D99383
:040BFC0000190913C0
:040C00000FF979135C
:040C040000C427837E
:040C08000047A78377
:040C0C001007F79343
:040C1000FE079AE35E
:040C140000C427836E
:040C180000C7A583E9
:040C1C000FF5F49349
:040C200000048593B4
:040C2400014A8513E9
:040C2800F64FF0EFA4
:040C2C000344886392
:040C3000FA9B7AE3CE
:040C3400FA94849317
:040C38000FF4F4932E
:040C3C00FA090AE3C4
:040C4000004999933B
:040C4400009989B3D7
:040C48000109999372
:040C4C000109D9932E
:040C5000001909136B
:040C54000FF9791308
:040C5800FB7916E32B
:040C5C0000098513F3
:040C600002C120832A
:040C640002812403E2
:040C6800024124839E
:040C6C000201290355
:040C700001C1298312
:040C740001812A03CD
:040C780001412A8389
:040C7C0001012B0344
:040C800000C12B8301
:040C84000301011354
:040C88000000806781
:040C8C0000B520236C
:040C900000100793B6
:040C940000F5A023A4
:040C98000000806771
:040C9C000205986352
:040CA00000052783A1
:040CA40000C7A623BC
:040CA800002006938F
:040CAC00004007936A
:040CB0000005270311
:040CB400000726030C
:040CB80000C7E7B3D7
:040CBC0000F72023FA
:040CC0000005278381
:040CC40000D7A22390
:040CC8000000806741
:040CCC000005278375
:040CD00000C7A8238E
:040CD4000040069343
:040CD80000800793FE
:040CDC00FD5FF06F59
:040CE0000005278361
:040CE4000047A7839B
:040CE80000B03533F0
:040CEC0000151513C7
:040CF00000250513C3
:040CF40000F575335F
:040CF80000A03533F0
:040CFC00000080670D
:040D0000FF010113DB
:040D04000011262391
:040D0800008124231F
:040D0C00009122230D
:040D10000005049343
:040D1400000584133F
:040D1800F85FF0EFA1
:040D1C000004059337
:040D20000004851333
:040D2400FBDFF0EF12
:040D2800FE050AE3D7
:040D2C0000C120835F
:040D30000081240317
:040D340000412483D3
:040D380001010113A1
:040D3C0000008067CC
:040D400000B52023B7
:040D4400002656131C
:040D480000C5A4231B
:040D4C0000050B2370
:040D500000052783F0
:040D54000007A023D1
:040D580000008067B0
:040D5C0000050693F5
:040D600000052783E0
:040D64000030071341
:040D680000E7A023DD
:040D6C000005270354
:040D7000004727838E
:040D74000027F793CA
:040D7800FE078CE303
:040D7C0000200793B9
:040D800000F7222333
:040D84000006A703BB
:040D88000046C783D7
:040D8C000017979322
:040D900000F726231F
:040D94000006A7832B
:040D980000900713AD
:040D9C0000E7A023A9
:040DA0000006A7039F
:040DA400004727835A
:040DA8000027F79396
:040DAC00FE078CE3CF
:040DB0000020079385
:040DB40000F72223FF
:040DB8000006A78307
:040DBC000047A50344
:040DC0000045751362
:040DC40008050663B5
:040DC8000156C78386
:040DCC000407846331
:040DD0000000061306
:040DD4000090051373
:040DD800002005935F
:040DDC000006A783E3
:040DE00000C687338F
:040DE400005747036A
:040DE80000E7A62357
:040DEC000006A783D3
:040DF00000A7A02395
:040DF4000006A7034B
:040DF8000047278306
:040DFC000027F79342
:040E0000FE078CE37A
:040E040000B72223EE
:040E080000160613B7
:040E0C000156C78341
:040E1000FCF646E3C3
:040E14000166C78329
:040E180000100513AE
:040E1C0002079A63CC
:040E20000006A7839E
:040E24000050071360
:040E280000E7A0231C
:040E2C000006A70312
:040E300000472783CD
:040E34000027F79309
:040E3800FE078CE342
:040E3C0000200793F8
:040E400000F7222372
:040E44000006A7837A
:040E48000007A023DC
:040E4C00001005137A
:040E500000008067B7
:040E540000050693FC
:040E580000052783E7
:040E5C000030071348
:040E600000E7A023E4
:040E6400000527035B
:040E68000047278395
:040E6C000027F793D1
:040E7000FE078CE30A
:040E740000200793C0
:040E780000F722233A
:040E7C000006A703C2
:040E80000046C783DE
:040E84000017979329
:040E88000017E793D5
:040E8C0000F7262322
:040E90000006A7832E
:040E940000900713B0
:040E980000E7A023AC
:040E9C000006A703A2
:040EA000004727835D
:040EA4000027F79399
:040EA800FE078CE3D2
:040EAC000020079388
:040EB00000F7222302
:040EB4000006A7830A
:040EB8000047A50347
:040EBC000045751365
:040EC0000A050063BC
:040EC4000156C78389
:040EC80004078E632A
:040ECC000000061309
:040ED00000200513E6
:040ED400000605937C
:040ED800FFF7879306
:040EDC0000F627B342
:040EE000005797938D
:040EE40001178793D8
:040EE8000006A70356
:040EEC0000F72023C8
:040EF0000006A7034E
:040EF4000047278309
:040EF8000027F79345
:040EFC00FE078CE37E
:040F000000A7222301
:040F04000006A783B9
:040F08000107A70333
:040F0C0000B687B3F1
:040F100000E782A3D1
:040F140000160613AA
:040F18000FF6761347
:040F1C000156C78330
:040F2000FAF66AE390
:040F24000166C78318
:040F2800001005139D
:040F2C0002079A63BB
:040F30000006A7838D
:040F3400005007134F
:040F380000E7A0230B
:040F3C000006A70301
:040F400000472783BC
:040F44000027F793F8
:040F4800FE078CE331
:040F4C0000200793E7
:040F500000F7222361
:040F54000006A78369
:040F58000007A023CB
:040F5C000010051369
:040F600000008067A6
:040F640000058A6397
:040F680000052783D6
:040F6C000410071353
:040F700000E7A023D3
:040F74000000806792
:040F780000052783C6
:040F7C000007A023A7
:040F80000000806786
:040F8400FF01011355
:040F8800001126230B
:040F8C000081242399
:040F90000091222387
:040F9400000504133D
:040F980000B502237B
:040F9C00FFD00793E8
:040FA00000F502A3B3
:040FA400001007939F
:040FA80000F503232A
:040FAC00002004938A
:040FB00000950AA3FB
:040FB400DA9FF0EFE1
:040FB8000440079357
:040FBC0000F402A398
:040FC0000050079343
:040FC40000F403230F
:040FC80000940AA3E4
:040FCC000004051305
:040FD000D8DFF0EF87
:040FD40000C12083B5
:040FD800008124036D
:040FDC000041248329
:040FE00001010113F7
:040FE4000000806722
:040FE800FF010113F1
:040FEC0000112623A7
:040FF0000081242335
:040FF4000091222323
:040FF8000121202390
:040FFC0000050413D5
:0410000000068493CF
:0410040000B502230E
:041008000086579374
:04100C0000F502A346
:0410100000C50323F1
:04101400002007931E
:0410180000F50AA332
:04101C0000100913A4
:0410200001250B2378
:04102400D39FF0EF77
:0410280001250E632D
:04102C0000C120835C
:041030000081240314
:0410340000412483D0
:041038000001290387
:04103C00010101139A
:0410400000008067C5
:0410440000100793FE
:0410480000F40AA303
:04104C0000040B236E
:041050000004051380
:04105400E01FF0EFBA
:041058000054478376
:04105C0000F48023F9
:04106000FCDFF06F52
:04106400FF01011374
:04106800001126232A
:04106C0000B50223A6
:04107000008657138C
:0410740000E502A3EE
:0410780000C5032389
:04107C0000D503A3F5
:041080000030071322
:0410840000E50AA3D6
:04108800CD5FF0EF59
:04108C0000C12083FC
:041090000101011346
:041094000000806771
:04109800FD01011342
:04109C0002112623F4
:0410A0000281242382
:0410A4000291222370
:0410A80003212023DD
:0410AC0001312E23BD
:0410B00001412C23AB
:0410B40001512A2399
:0410B8000005091313
:0410BC00000589930F
:0410C00002060C63B5
:0410C400000684138B
:0410C80000060A1301
:0410CC000000049389
:0410D00000100A936F
:0410D400004446830B
:0410D80000045603B7
:0410DC0000098593EF
:0410E00000090513EB
:0410E400F81FF0EF12
:0410E8000155186333
:0410EC000084041365
:0410F00000148493D1
:0410F400FF4490E342
:0410F80000F106936A
:0410FC0000A0061337
:0411000000098593CA
:0411040000090513C6
:04110800EE1FF0EFF7
:04110C0000F14403A7
:0411100000146693CE
:0411140000A006131E
:0411180000098593B2
:04111C0000090513AE
:04112000F45FF0EF99
:041124000FE47693CB
:0411280000A006130A
:04112C00000985939E
:04113000000905139A
:04113400F31FF0EFC6
:0411380002C120834D
:04113C000281240305
:0411400002412483C1
:041144000201290378
:0411480001C1298335
:04114C0001812A03F0
:0411500001412A83AC
:04115400030101137F
:0411580000008067AC
:04115C00FD0101137D
:04116000021126232F
:0411640002812423BD
:0411680002912223AB
:04116C000321202318
:0411700001312E23F8
:0411740000050493DB
:0411780000058913D2
:04117C00000689934D
:0411800000200793B1
:04118400112004131F
:0411880002F6006308
:04118C000030079395
:0411900011A0041393
:0411940000F60A63F4
:0411980000100793A9
:04119C0010A0041388
:0411A00000F60463EE
:0411A4001020041300
:0411A80000F10693B9
:0411AC000004061322
:0411B000000905939A
:0411B400000485139B
:0411B800E31FF0EF52
:0411BC0002098C6335
:0411C00000F1468371
:0411C4000FD6F693B9
:0411C8000004061306
:0411CC00000905937E
:0411D000000485137F
:0411D400E91FF0EF30
:0411D80002C12083AD
:0411DC000281240365
:0411E0000241248321
:0411E40002012903D8
:0411E80001C1298395
:0411EC0003010113E7
:0411F0000000806714
:0411F40000F146833D
:0411F8000026E69354
:0411FC00FCDFF06FB5
:04120000FE010113D7
:0412040000112E2384
:0412080000812C2312
:04120C0000912A2300
:04121000012128236D
:04121400013126235B
:041218000141242349
:04121C0000050913AD
:0412200000058993A9
:0412240000060413A9
:0412280000068493A5
:04122C000000069325
:04123000F2DFF0EF0A
:0412340000200793FC
:0412380011000A1384
:04123C0002F4006355
:0412400000300793E0
:0412440011800A13F8
:0412480000F40A6341
:04124C0000100793F4
:0412500010800A13ED
:0412540000F404633B
:0412580010000A1365
:04125C000FF4F69302
:04126000000A061367
:041264000009859365
:041268000009051361
:04126C00DF9FF0EF21
:041270000084D6938D
:041274000806E693EF
:04127800001A06133F
:04127C00000985934D
:041280000009051349
:04128400DE1FF0EF8A
:0412880000050493C6
:04128C0000100693B5
:04129000000406133D
:041294000009859335
:041298000009051331
:04129C00EC1FF0EF64
:0412A00000048513AE
:0412A40001C12083E1
:0412A8000181240399
:0412AC000141248355
:0412B000010129030C
:0412B40000C12983C9
:0412B80000812A0384
:0412BC000201011317
:0412C0000000806743
:0412C400FF01011312
:0412C80000112623C8
:0412CC000081242356
:0412D0000091222344
:0412D40001212023B1
:0412D8000005049376
:0412DC00000589136D
:0412E00000060413ED
:0412E4000FF67693F8
:0412E8000C8006135D
:0412EC00D79FF0EFA9
:0412F000008456938D
:0412F4000FF6F69368
:0412F8000C9006133D
:0412FC00000905934D
:04130000000485134D
:04130400D61FF0EF11
:0413080001045693F3
:04130C000FF6F6934F
:041310000CA0061314
:041314000009059334
:041318000004851335
:04131C00D49FF0EF7B
:04132000018456935B
:041324000CB00613F0
:041328000009059320
:04132C000004851321
:04133000D35FF0EFA8
:0413340000C1208351
:041338000081240309
:04133C0000412483C5
:04134000000129037C
:04134400010101138F
:0413480000008067BA
:04134C00004597932E
:04135000006597138A
:0413540000E7E7B314
:0413580000A7E7B350
:04135C0000C597131E
:0413600000E7E7B308
:0413640000E5959378
:0413680000B7E7B330
:04136C00002517132E
:0413700000E7E7B3F8
:0413740000851713C6
:0413780000E7E7B3F0
:04137C0000A51513A0
:0413800000A7E533AA
:041384000105151337
:0413880001055513F3
:04138C000000806776
:04139000FF01011345
:0413940000112623FB
:041398000081242389
:04139C000091222377
:0413A00001212023E4
:0413A4000005041329
:0413A8000006849324
:0413AC0000B5022363
:0413B00000C502A3CF
:0413B4000086561346
:0413B80000C5032346
:0413BC000020079373
:0413C00000F50AA387
:0413C40000100913F9
:0413C80001250B23CD
:0413CC00991FF0EF86
:0413D00001250E6382
:0413D40000C12083B1
:0413D8000081240369
:0413DC000041248325
:0413E00000012903DC
:0413E40001010113EF
:0413E800000080671A
:0413EC000040079323
:0413F00000F40AA358
:0413F40000040B23C3
:0413F80000040513D5
:0413FC00A59FF0EFCA
:0414000000544783CA
:0414040000F4A0232D
:041408000064470332
:04140C00008717132B
:0414100000F7673347
:0414140000E4A0232D
:041418000074478392
:04141C00010797939A
:0414200000E7E7B347
:0414240000F4A0230D
:0414280000844703F2
:04142C00018717130A
:0414300000F767B3A7
:0414340000F4A023FD
:04143800F9DFF06F79
:04143C00FF01011398
:04144000001126234E
:0414440000B50223CA
:0414480000C502A336
:04144C0000865613AD
:0414500000C50323AD
:0414540000D503A319
:041458000086D71320
:04145C0000E5042380
:041460000106D71397
:0414640000E504A3F8
:041468000186D69390
:04146C0000D505237F
:0414700000600713FE
:0414740000E50AA3E2
:041478008E5FF0EFA4
:04147C0000C1208308
:041480000101011352
:04148400000080677D
:04148800FE0101134D
:04148C0000112E23FA
:0414900000812C2388
:0414940000912A2376
:041498000005041334
:04149C000005849330
:0414A00000C10693EE
:0414A400504006139B
:0414A800EE9FF0EFD4
:0414AC0000C12683D2
:0414B0000486E69335
:0414B400504006138B
:0414B8000004859314
:0414BC000004051310
:0414C000F7DFF0EF73
:0414C40001C12083BF
:0414C8000181240377
:0414CC000141248333
:0414D0000201011301
:0414D400000080672D
:0414D800FE010113FD
:0414DC0000112E23AA
:0414E00000812C2338
:0414E40000912A2326
:0414E80000050413E4
:0414EC0000058493E0
:0414F00000C106939E
:0414F40035000613A6
:0414F800E99FF0EF89
:0414FC0000C1268382
:04150000FEF6F6936A
:041504003500061395
:0415080000048593C3
:04150C0000040513BF
:04151000F2DFF0EF27
:0415140001C120836E
:041518000181240326
:04151C0001412483E2
:0415200002010113B0
:0415240000008067DC
:04152800FE010113AC
:04152C0000112E2359
:0415300000812C23E7
:0415340000912A23D5
:041538000121282342
:04153C00000504138F
:04154000000584938B
:041544000006091381
:0415480000C1069345
:04154C00000016374E
:041550009086061368
:04155400E3DFF0EFF2
:04155800040900631F
:04155C0000C1268321
:04156000000017B7B9
:0415640080078793E2
:0415680000F6E6B3F0
:04156C00000016372E
:041570009086061348
:041574000004859357
:041578000004051353
:04157C00EC1FF0EF81
:0415800001C1208302
:0415840001812403BA
:041588000141248376
:04158C00010129032D
:041590000201011340
:04159400000080676C
:0415980000C12683E5
:04159C00FFFFF7B79F
:0415A0007FF78793B7
:0415A40000F6F6B3A4
:0415A800FC5FF06F85
:0415AC00FE01011328
:0415B00000112E23D5
:0415B40000812C2363
:0415B80000912A2351
:0415BC0001212823BE
:0415C000000504130B
:0415C4000005849307
:0415C80000C10693C5
:0415CC0000001937CB
:0415D00090890613E5
:0415D400DBDFF0EF7A
:0415D80000C12683A5
:0415DC00FFFFF7B75F
:0415E0007FF7879377
:0415E40000F6F6B364
:0415E80090890613CD
:0415EC0000048593DF
:0415F00000040513DB
:0415F400E49FF0EF91
:0415F8000000069356
:0415FC0092C9061377
:0416000000048593CA
:0416040000040513C6
:04160800E35FF0EFBD
:04160C00555506B773
:041610005056869317
:04161400910906131F
:0416180000048593B2
:04161C0000040513AE
:04162000E1DFF0EF27
:041624005A5A16B741
:04162800A0A686935F
:04162C0091490613C7
:04163000000485939A
:041634000004051396
:04163800E05FF0EF90
:04163C005F5FB6B77F
:04164000AAA686933D
:04164400918906136F
:041648000004859382
:04164C00000405137E
:04165000DEDFF0EFFA
:04165400FFFFB6B727
:04165800FAF6869385
:04165C0091C9061317
:04166000000485936A
:041664000004051366
:04166800DD5FF0EF63
:04166C0001C1208315
:0416700001812403CD
:041674000141248389
:041678000101290340
:04167C000201011353
:04168000000080677F
:04168400FD01011350
:041688000211262302
:04168C000281242390
:04169000029122237E
:0416940003212023EB
:0416980001312E23CB
:04169C0001412C23B9
:0416A00000050493AA
:0416A40000058913A1
:0416A8000006041321
:0416AC0000068A1397
:0416B00000C10693DC
:0416B400000019B762
:0416B800908986137C
:0416BC00CD5FF0EF1F
:0416C00000C12683BC
:0416C4004006E69363
:0416C80000D1262304
:0416CC009089861368
:0416D0000009059375
:0416D4000004851376
:0416D800D65FF0EFFA
:0416DC0000C10693B0
:0416E0009049861394
:0416E4000009059361
:0416E8000004851362
:0416EC00CA5FF0EFF2
:0416F00000AA1793A2
:0416F40000EA1713DE
:0416F80000E7E7B36D
:0416FC0000C12703FF
:04170000FF0006B729
:041704000FF68693C3
:0417080000D777335C
:04170C0000E7E7B358
:04171000012A171380
:0417140000E7E7B350
:04171800016A1A1335
:04171C000147E7B3E7
:041720000084171317
:0417240000E7E7B340
:0417280000C41713CF
:04172C0000E7E7B338
:041730000104171386
:0417340000E7E7B330
:0417380001441693BF
:04173C0000D7E6B339
:041740009049861333
:041744000009059300
:041748000004851301
:04174C00CF1FF0EFCC
:0417500002C120832F
:0417540002812403E7
:0417580002412483A3
:04175C00020129035A
:0417600001C1298317
:0417640001812A03D2
:041768000301011365
:04176C000000806792
:04177000FE01011362
:0417740000112E230F
:0417780000812C239D
:04177C0000912A238B
:0417800001212823F8
:0417840000050493C5
:0417880000058913BC
:04178C00000604133C
:0417900000C10693FB
:0417940024C0061354
:04179800BF9FF0EF10
:04179C0000C12683DF
:0417A0000086969396
:0417A4000086D69352
:0417A80001C4141351
:0417AC000086E6B31A
:0417B00024C0061338
:0417B4000009059390
:0417B8000004851391
:0417BC00C81FF0EF63
:0417C00001C12083C0
:0417C4000181240378
:0417C8000141248334
:0417CC0001012903EB
:0417D00002010113FE
:0417D400000080672A
:0417D800FE010113FA
:0417DC0000112E23A7
:0417E00000812C2335
:0417E40000912A2323
:0417E8000121282390
:0417EC0000050413DD
:0417F00000058493D9
:0417F40000012623A7
:0417F80002060A6378
:0417FC0000060913C7
:0418000000C106938A
:041804000000163793
:04180800900606132D
:04180C00B85FF0EFE2
:04181000001007932A
:0418140002F91E6354
:0418180000C1268362
:04181C00FFFF87B78C
:04182000FFF78793B4
:0418240000F6F6B321
:041828000340006F0A
:04182C00000006931F
:041830000000193764
:04183400A0090613EE
:04183800C05FF0EFAE
:04183C0000C106934E
:0418400090090613F2
:041844000004859384
:041848000004051380
:04184C00B45FF0EFA6
:04185000000086B757
:0418540000C1278325
:0418580000F6E6B3FD
:04185C00000016373B
:0418600090060613D5
:041864000004859364
:041868000004051360
:04186C00BD1FF0EFBD
:0418700001C120830F
:0418740001812403C7
:041878000141248383
:04187C00010129033A
:04188000020101134D
:041884000000806779
:04188800FF01011348
:04188C0000112623FE
:04189000008124238C
:04189400009122237A
:041898000005041330
:04189C00000584932C
:0418A000BE9FF0EF08
:0418A4000004859324
:0418A8000004051320
:0418AC00C2DFF0EFB8
:0418B000000006131B
:0418B4000004859314
:0418B8000004051310
:0418BC00C6DFF0EFA4
:0418C0000004859308
:0418C4000004051304
:0418C800CE5FF0EF10
:0418CC00002006935F
:0418D00000200613DB
:0418D40000048593F4
:0418D80000040513F0
:0418DC00DA9FF0EFB0
:0418E00000000613EB
:0418E40000048593E4
:0418E80000040513E0
:0418EC00EEDFF0EF4C
:0418F00000C1208390
:0418F4000081240348
:0418F8000041248304
:0418FC0001010113D2
:0419000000008067FC
:04190400FE010113CC
:0419080000112E2379
:04190C0000812C2307
:0419100000912A23F5
:0419140000050413B3
:0419180000058493AF
:04191C0000C106936D
:0419200030C00613BA
:04192400A6DFF0EF5B
:04192800800006B77E
:04192C0000C127834C
:0419300000F6E6B324
:0419340030C00613A6
:04193800000485938F
:04193C00000405138B
:04194000AFDFF0EF36
:0419440001C120833A
:0419480001812403F2
:04194C0001412483AE
:04195000020101137C
:0419540000008067A8
:04195800FE01011378
:04195C0000112E2325
:0419600000812C23B3
:0419640000912A23A1
:04196800000504135F
:04196C00000584935B
:0419700000C1069319
:041974001500061341
:04197800A19FF0EF4C
:04197C00001006B79A
:0419800000C12783F8
:0419840000F6E6B3D0
:0419880000D1262341
:04198C001500061329
:041990000004859337
:041994000004051333
:04199800AA5FF0EF63
:04199C0000C10693ED
:0419A0006680061344
:0419A4000004859323
:0419A800000405131F
:0419AC009E5FF0EF5B
:0419B00000C12683C9
:0419B4000016E693A0
:0419B80000D1262311
:0419BC006680061328
:0419C0000004859307
:0419C4000004051303
:0419C800A75FF0EF36
:0419CC0000C10693BD
:0419D0006740061353
:0419D40000048593F3
:0419D80000040513EF
:0419DC009B5FF0EF2E
:0419E00000C1268399
:0419E4000016E69370
:0419E80000D12623E1
:0419EC006740061337
:0419F00000048593D7
:0419F40000040513D3
:0419F800A45FF0EF09
:0419FC0000C106938D
:041A00006800061361
:041A040000048593C2
:041A080000040513BE
:041A0C00985FF0EF00
:041A100000C1268368
:041A1400FFF107B720
:041A1800FFF78793BA
:041A1C0000F6F6B327
:041A2000000707B7FD
:041A240000F6E6B32F
:041A280000D12623A0
:041A2C006800061335
:041A30000004859396
:041A34000004051392
:041A3800A05FF0EFCC
:041A3C0000C106934C
:041A400060400613E9
:041A44000004859382
:041A4800000405137E
:041A4C00945FF0EFC4
:041A500000C1268328
:041A54000046E693CF
:041A580000D1262370
:041A5C0060400613CD
:041A60000004859366
:041A64000004051362
:041A68009D5FF0EF9F
:041A6C0000C106931C
:041A700068400613B1
:041A74000004859352
:041A7800000405134E
:041A7C00915FF0EF97
:041A800000C12683F8
:041A8400FBF6F693E4
:041A88006840061399
:041A8C00000485933A
:041A90000004051336
:041A94009A9FF0EF36
:041A980001C12083E5
:041A9C00018124039D
:041AA0000141248359
:041AA4000201011327
:041AA8000000806753
:041AAC00FE01011323
:041AB00000112E23D0
:041AB40000812C235E
:041AB80000912A234C
:041ABC0001212823B9
:041AC0000005041306
:041AC4000005849302
:041AC80000060913F8
:041ACC0000C10693BC
:041AD0006300061396
:041AD4008BDFF0EFC5
:041AD80000C12683A0
:041ADC008C06F693EB
:041AE0000126E6B342
:041AE4004006E6933F
:041AE800630006137E
:041AEC0000048593DA
:041AF00000040513D6
:041AF400949FF0EFDC
:041AF80001C1208385
:041AFC00018124033D
:041B000001412483F8
:041B040001012903AF
:041B080002010113C2
:041B0C0000008067EE
:041B1000FD010113BF
:041B14000211262371
:041B180002812423FF
:041B1C0002912223ED
:041B2000032120235A
:041B240001312E233A
:041B2800000504931D
:041B2C000005891314
:041B3000000609930F
:041B34000006841310
:041B380000C106934F
:041B3C00720006131A
:041B4000851FF0EF1E
:041B440001899793E9
:041B480001A9971345
:041B4C0000E7E7B314
:041B500000C12703A6
:041B540000871713DC
:041B58000087571398
:041B5C0000E7E7B304
:041B600001C997130D
:041B640000E7E7B3FC
:041B680001E9999363
:041B6C000137E6B3A4
:041B700000D1262357
:041B740072000613E2
:041B780000090593C8
:041B7C0000048513C9
:041B80008BDFF0EF18
:041B840000C1069303
:041B8800724006138E
:041B8C0000090593B4
:041B900000048513B5
:041B9400FFCFF0EFA0
:041B980000C12783DE
:041B9C00F007F793C4
:041BA0000087E7B320
:041BA40000241713EF
:041BA80000E7E7B3B8
:041BAC0000441713C7
:041BB00000E7E7B3B0
:041BB4000064169320
:041BB80000D7E6B3B9
:041BBC00724006135A
:041BC0000009059380
:041BC4000004851381
:041BC800875FF0EF54
:041BCC0002C12083AF
:041BD0000281240367
:041BD4000241248323
:041BD80002012903DA
:041BDC0001C1298397
:041BE00003010113E9
:041BE4000000806716
:041BE800FF010113E5
:041BEC00001126239B
:041BF0000081242329
:041BF4000091222317
:041BF8000121202384
:041BFC0000050413C9
:041C0000000589133F
:041C040000461493EF
:041C080000C4E4B37D
:041C0C000FF4F4934A
:041C100000B50223F6
:041C14000100079331
:041C180000F502A32E
:041C1C000095032309
:041C20000020079306
:041C240000F50AA31A
:041C2800934FF0EFF7
:041C2C00001007930A
:041C300002F5006356
:041C34000000051394
:041C380000C1208344
:041C3C0000812403FC
:041C400000412483B8
:041C4400000129036F
:041C48000101011382
:041C4C0000008067AD
:041C50000124022346
:041C540001100793E1
:041C580000F402A3EF
:041C5C0000940323CA
:041C600000200793C6
:041C640000F40AA3DB
:041C6800000405135C
:041C6C008F0FF0EFF7
:041C7000FFF5051364
:041C7400001535130F
:041C7800FC1FF06FEE
:041C7C00FF01011350
:041C80000011262306
:041C84000081242394
:041C88000091222382
:041C8C0001212023EF
:041C90000005041334
:041C940000068913AA
:041C980000B502236E
:041C9C0000C502A3DA
:041CA0000010049399
:041CA40000950AA3FA
:041CA80000950B2375
:041CAC008B0FF0EFBB
:041CB00000950E632A
:041CB40000C12083C8
:041CB8000081240380
:041CBC00004124833C
:041CC00000012903F3
:041CC4000101011306
:041CC8000000806731
:041CCC00001007936A
:041CD00000F40AA36F
:041CD40000040B23DA
:041CD80000040513EC
:041CDC00978FF0EFFF
:041CE00000544783E2
:041CE40000F90023E0
:041CE800FCDFF06FBE
:041CEC00FE010113E1
:041CF00000112E238E
:041CF40000812C231C
:041CF80000912A230A
:041CFC0000050413C8
:041D000000058493C3
:041D040000F1069351
:041D080000A006131E
:041D0C00F71FF0EFDE
:041D10000010079325
:041D140000F50E6365
:041D180000000513AF
:041D1C0001C120835E
:041D20000181240316
:041D240001412483D2
:041D280002010113A0
:041D2C0000008067CC
:041D300000F14783F4
:041D3400FFC7F7935B
:041D380001A7E79385
:041D3C0000940223EA
:041D400000A00713E5
:041D440000E402A312
:041D480000F403237D
:041D4C0000200793D9
:041D500000F40AA3EE
:041D5400000405136F
:041D5800804FF0EFD9
:041D5C00FFF5051377
:041D60000015351322
:041D6400FB9FF06F82
:041D6800FE01011364
:041D6C0000112E2311
:041D700000812C239F
:041D740000912A238D
:041D780001212823FA
:041D7C000005041347
:041D80000005849343
:041D84000006091339
:041D880000F10693CD
:041D8C000130061309
:041D9000EEDFF0EFA3
:041D940000100793A1
:041D980004F51E63CD
:041D9C0004090663CD
:041DA00000F1478384
:041DA40007F7F793B3
:041DA800009402237E
:041DAC0001300713E8
:041DB00000E402A3A6
:041DB40000F4032311
:041DB800002007936D
:041DBC0000F40AA382
:041DC0000004051303
:041DC400F99FE0EFB4
:041DC800FFF505130B
:041DCC0000153513B6
:041DD00001C12083AA
:041DD4000181240362
:041DD800014124831E
:041DDC0001012903D5
:041DE00002010113E8
:041DE4000000806714
:041DE80000F147833C
:041DEC000807E7936A
:041DF000FB9FF06FF6
:041DF40000000513D3
:041DF800FD9FF06FEC
:041DFC00FF010113CF
:041E00000011262384
:041E04000081242312
:041E08000091222300
:041E0C00012120236D
:041E100000050413B2
:041E140000058493AE
:041E180000060913A4
:041E1C00ED1FF0EFD7
:041E20000010061395
:041E2400000485939E
:041E2800000405139A
:041E2C00F3DFF0EF01
:041E3000000906138C
:041E3400000485938E
:041E3800000405138A
:041E3C00DADFF0EF0A
:041E400000C120833A
:041E440000812403F2
:041E480000412483AE
:041E4C000001290365
:041E50000101011378
:041E540000008067A3
:041E5800FF01011372
:041E5C000011262328
:041E600000B50223A4
:041E640000C502A310
:041E680000D503237B
:041E6C000020071338
:041E700000E50AA3DC
:041E7400EE9FE0EF0E
:041E780000C1208302
:041E7C00010101134C
:041E80000000806777
:041E840000B5202362
:041E880000C522234C
:041E8C0000D5242336
:041E900002E5242320
:041E940002F526230A
:041E980003052823F3
:041E9C000005062314
:041EA00002050A230A
:041EA40002050AA386
:041EA800000080674F
:041EAC0000059E632C
:041EB00000460613CF
:041EB40000261613DB
:041EB80000C5063328
:041EBC0000D6202309
:041EC00000E51C23FA
:041EC4000000806733
:041EC80000460613B7
:041ECC0000261613C3
:041ED00000C5063310
:041ED40000D62623EB
:041ED80002E51223EA
:041EDC00000080671B
:041EE000FF010113EA
:041EE40000112623A0
:041EE80000059E63F0
:041EEC000305258342
:041EF00000052503C1
:041EF400AD1FE0EF4F
:041EF80000C1208382
:041EFC0001010113CC
:041F000000008067F6
:041F04000305258329
:041F080000052503A8
:041F0C00AC5FE0EFF7
:041F1000FE9FF06FD1
:041F1400FF010113B5
:041F1800001126236B
:041F1C0000812423F9
:041F200000912223E7
:041F24000121202354
:041F28000005049319
:041F2C000005891310
:041F30000000263750
:041F34007106061319
:041F3800000005930D
:041F3C0000852503F4
:041F4000D5DFE0EF1A
:041F44000004A503ED
:041F4800AE1FE0EFF9
:041F4C0001257433C4
:041F50000204126312
:041F540000000593F1
:041F58000084A50359
:041F5C00D85FE0EF7B
:041F6000FE0502E395
:041F6400100005372D
:041F680001850513D7
:041F6C00C20FE0EFD1
:041F70000080006F7E
:041F74000010041342
:041F78000004051349
:041F7C0000C12083FD
:041F800000812403B5
:041F84000041248371
:041F88000001290328
:041F8C00010101133B
:041F90000000806766
:041F9400FE01011336
:041F980000112E23E3
:041F9C0000812C2371
:041FA00000912A235F
:041FA40001212823CC
:041FA80001312623BA
:041FAC000005041315
:041FB0000006049390
:041FB4000006891387
:041FB8000007099382
:041FBC00F25FF0EFF1
:041FC00000900593F5
:041FC40000442503AD
:041FC800FBDFE0EF6C
:041FCC000010079367
:041FD00002F50063B3
:041FD40001C12083A4
:041FD800018124035C
:041FDC000141248318
:041FE00001012903CF
:041FE40000C129838C
:041FE80002010113DE
:041FEC00000080670A
:041FF000000906934B
:041FF400000486134C
:041FF80000900593BD
:041FFC000044250375
:04200000898FF0EFE5
:04200400001007932E
:04200800FCF516E3EA
:04200C0000098593AF
:0420100000040513B0
:04201400F01FF0EFDA
:04201800001007931A
:04201C00FB9FF06FC7
:04202000FF010113A8
:04202400001126235E
:0420280000812423EC
:04202C0000912223DA
:042030000121202347
:04203400000504930C
:042038000005891303
:04203C0002852703EF
:0420400001052683ED
:0420440001855603B9
:0420480000000593FC
:04204C00F49FF0EF1E
:0420500000100793E2
:0420540000F506632A
:042058000005041368
:04205C00080902630A
:0420600002C4A7030C
:0420640001C4A6838A
:042068000244D60355
:04206C0000100593C8
:0420700000048513D0
:04207400F21FF0EF78
:042078000005041348
:04207C0000100793B6
:0420800000F5046300
:0420840006090663E0
:04208800001006132B
:04208C000470059344
:042090000044A50360
:04209400D69FF0EFF4
:042098000005041328
:04209C000010079396
:0420A00000F50463E0
:0420A40004090E63BA
:0420A800015005934B
:0420AC000044A50344
:0420B000FD8FF0EFC1
:0420B400000504130C
:0420B800001007937A
:0420BC0000F50463C4
:0420C00004090863A4
:0420C40000040513FC
:0420C80000C12083B0
:0420CC000081240368
:0420D0000041248324
:0420D40000012903DB
:0420D80001010113EE
:0420DC000000806719
:0420E00010000537B0
:0420E40003050513D8
:0420E800AA4FE0EF2C
:0420EC00FD9FF06FF5
:0420F00010000537A0
:0420F4000585051346
:0420F800A94FE0EF1D
:0420FC00FC9FF06FE6
:04210000100005378F
:042104000845051372
:04210800A84FE0EF0D
:04210C00FB9FF06FD6
:04211000100005377F
:042114000A050513A0
:04211800A74FE0EFFE
:04211C00FA9FF06FC7
:04212000FF010113A7
:04212400001126235D
:042128000285270302
:04212C000105268300
:0421300001855603CC
:04213400000005930F
:04213800E5DFF0EF00
:04213C0000C120833B
:042140000101011385
:0421440000008067B0
:0421480000C5478304
:04214C000EC78A63CD
:04215000FF01011377
:04215400001126232D
:0421580000812423BB
:04215C0000912223A9
:042160000121202316
:04216400000504135B
:0421680000058913D2
:04216C0000060493D2
:0421700000C506237D
:04217400003007939D
:0421780004F6046302
:04217C00034547834D
:04218000060790635B
:0421840000000593BF
:042188000004051337
:04218C00D55FF0EF3C
:0421900001203633C1
:042194000016061318
:042198000010079399
:04219C0006F4806362
:0421A0000020079381
:0421A40006F480635A
:0421A800080488633C
:0421AC0010000537E3
:0421B0000C05051302
:0421B4009D8FE0EF2C
:0421B800000005130B
:0421BC000640006F6A
:0421C000028527036A
:0421C4000145268328
:0421C8000185560334
:0421CC000000059377
:0421D000DC5FF0EFF1
:0421D400001007935D
:0421D80002F40A23E0
:0421DC000440006F4C
:0421E000028527034A
:0421E4000105268348
:0421E8000185560314
:0421EC000000059357
:0421F000DA5FF0EFD3
:0421F40002040A23B4
:0421F800F8DFF06FAD
:0421FC0004B0069392
:042200000080006FEB
:04220400032006931A
:0422080000900593AA
:04220C000044250362
:04221000FF1FE0EFDD
:042214000284258398
:0422180000040513A6
:04221C00CF9FF0EF71
:0422200000C1208356
:04222400008124030E
:0422280000412483CA
:04222C000001290381
:042230000101011394
:0422340000008067BF
:0422380007D0069332
:04223C00FCDFF06F64
:042240000010051372
:0422440000008067AF
:04224800FF0101137E
:04224C000011262334
:0422500000812423C2
:0422540000912223B0
:04225800012120231D
:04225C000005041362
:042260000050071310
:042264000AE58463A0
:042268000005849356
:04226C00035547834C
:042270000C0796635E
:0422740000100593BE
:042278000004051346
:04227C00C65FF0EF5A
:042280000030079390
:042284000EF4886369
:042288000C97EC6360
:04228C0000100793A4
:04229000110009131D
:0422940000F4886367
:042298000020079388
:04229C00088009139A
:0422A0000AF49C633D
:0422A4000009069394
:0422A8000000061319
:0422AC000090059306
:0422B00000442503BE
:0422B400F4DFE0EF84
:0422B8000009069380
:0422BC0000100613F5
:0422C00000900593F2
:0422C40000442503AA
:0422C800F39FE0EFB1
:0422CC00000906936C
:0422D00000200613D1
:0422D40000900593DE
:0422D8000044250396
:0422DC00F25FE0EFDE
:0422E00002C425838C
:0422E40000040513DA
:0422E800C2DFF0EF72
:0422EC00000507934F
:0422F000000785134B
:0422F40000C1208382
:0422F800008124033A
:0422FC0000412483F6
:0423000000012903AC
:0423040001010113BF
:0423080000008067EA
:04230C0003554683AC
:04231000001007139F
:04231400FCE68EE372
:0423180002C52703D0
:04231C00020526830D
:042320000245560319
:04232400001005930D
:04232800C6DFF0EF2D
:04232C00000507930E
:04233000001007137F
:0423340002E40AA312
:04233800FB9FF06FA8
:04233C0002C52703AC
:0423400001C526832A
:0423440002455603F5
:0423480000100593E9
:04234C00C49FF0EF4B
:0423500002040AA3D6
:04235400F21FF06F15
:042358002200091343
:04235C00F49FF06F8B
:04236000004007939F
:042364000220091337
:04236800F2F48EE31A
:04236C00220009132F
:04237000F35FF06FB8
:042374000440091305
:04237800F2DFF06F31
:04237C00FF01011349
:0423800000112623FF
:04238400000006133C
:042388000470059345
:04238C0000452503E0
:042390009D9FF0EF2E
:0423940000C12083E1
:04239800010101132B
:04239C000000806756
:0423A000FE01011326
:0423A40000112E23D3
:0423A80000812C2361
:0423AC000005041311
:0423B00010000537DD
:0423B4000EC505133A
:0423B800FD5FD0EF06
:0423BC0000F1069393
:0423C00000A0061360
:0423C4000470059309
:0423C80000442503A5
:0423CC008B1FF0EF84
:0423D00010000537BD
:0423D4001045051398
:0423D800FB5FD0EFE8
:0423DC0000F1069373
:0423E00001000613DF
:0423E40004700593E9
:0423E8000044250385
:0423EC00891FF0EF66
:0423F000100005379D
:0423F40011050513B7
:0423F800F95FD0EFCA
:0423FC0000F1069353
:0424000001100613AE
:0424040004700593C8
:042408000044250364
:04240C00871FF0EF47
:04241000100005377C
:0424140011C50513D6
:04241800F75FD0EFAB
:04241C0000F1069332
:04242000012006137E
:0424240004700593A8
:042428000044250344
:04242C00851FF0EF29
:04243000100005375C
:0424340012850513F5
:04243800F55FD0EF8D
:04243C0000F1069312
:04244000013006134E
:042444000470059388
:042448000044250324
:04244C00831FF0EF0B
:04245000100005373C
:042454001345051314
:04245800F35FD0EF6F
:04245C0001C1208317
:0424600001812403CF
:04246400020101135D
:042468000000806789
:04246C00FF01011358
:04247000001126230E
:0424740000B502238A
:04247800000502A3B6
:04247C000005032331
:0424800004D007136A
:0424840000E503A3C9
:0424880004700713C2
:04248C0000E5042340
:0424900000C504A3DC
:0424940000500713DA
:0424980000E50AA3AE
:04249C008C1FE0EFC2
:0424A00000C12083D4
:0424A400010101131E
:0424A8000000806749
:0424AC00FF01011318
:0424B00000112623CE
:0424B400008124235C
:0424B800009122234A
:0424BC000005049380
:0424C000000584137C
:0424C40010000537C8
:0424C80014050513DF
:0424CC00EC1FD0EF42
:0424D00007800793E7
:0424D40008F40263A3
:0424D8000487EC6326
:0424DC00034007931F
:0424E00008F40C638D
:0424E4000450079306
:0424E8000AF4186377
:0424EC0010000537A0
:0424F0001545051376
:0424F400E99FD0EF9D
:0424F8000450061373
:0424FC00053005930F
:042500000044A503EB
:04250400F69FF0EF5F
:042508000010079325
:04250C000AF5066363
:04251000100005377B
:042514005B4505130B
:04251800E75FD0EFBA
:04251C0000C1208357
:04252000008124030F
:0425240000412483CB
:042528000101011399
:04252C0000008067C4
:0425300009400793C4
:0425340006F4126334
:042538001000053753
:04253C001645051328
:04254000E4DFD0EF15
:042544000940061331
:042548000570059382
:04254C000044A5039F
:04255000F1DFF0EFD8
:04255400FB5FF06FCA
:042558001000053733
:04255C0015C5051389
:04256000E2DFD0EFF7
:0425640007800613D3
:042568000570059362
:04256C000044A5037F
:04257000EFDFF0EFBA
:04257400F95FF06FAC
:042578001000053713
:04257C001705051327
:04258000E0DFD0EFD9
:0425840003400613F7
:042588000570059342
:04258C000044A5035F
:04259000EDDFF0EF9C
:04259400F75FF06F8E
:0425980010000537F3
:04259C0017C5051347
:0425A000DEDFD0EFBB
:0425A40002200613F8
:0425A8000500059392
:0425AC000044A5033F
:0425B000EBDFF0EF7E
:0425B400F55FF06F70
:0425B80010000537D3
:0425BC0018C5051326
:0425C000DCDFD0EF9D
:0425C400F59FF06F20
:0425C800FF010113FB
:0425CC0000112623B1
:0425D000008124233F
:0425D40000050413E7
:0425D80000B5022325
:0425DC00000502A351
:0425E00000050323CC
:0425E4000020079339
:0425E80000F50AA34D
:0425EC0000050B23B8
:0425F000F6CFE0EF53
:0425F4000030079319
:0425F80000F40AA33E
:0425FC0000040B23A9
:0426000000040513BA
:04260400851FE0EF5F
:042608000010079324
:04260C0000F50A6368
:0426100000C1208362
:04261400008124031A
:0426180001010113A8
:04261C0000008067D3
:04262000004425034A
:04262400010007B7F3
:04262800F00787939D
:04262C0000F575330D
:04263000FFB8B7B781
:042634003007879351
:0426380000F5053371
:04263C00001535133D
:04264000FD1FF06F1B
:04264400FD01011380
:042648000211262332
:04264C0002812423C0
:0426500002912223AE
:04265400032120231B
:0426580001312E23FB
:04265C0001412C23E9
:0426600001512A23D7
:0426640001612823C5
:0426680001712623B3
:04266C0001812423A1
:0426700000050493CA
:042674001000053716
:042678001905051328
:04267C00D11FD0EFAB
:0426800005000593B9
:042684000044A50366
:04268800F41FF0EF5C
:04268C0000100793A0
:0426900002F51263DA
:042694000044A783D4
:042698000077C703FD
:04269C00022007937E
:0426A00002F71063CA
:0426A40010000537E6
:0426A8001A85051377
:0426AC00CE1FD0EF7E
:0426B0000100006FB6
:0426B40010000537D6
:0426B8001B050513E6
:0426BC00CD1FD0EF6F
:0426C00000000413FF
:0426C40010000AB741
:0426C80000100A13E1
:0426CC000780091367
:0426D00009400C139E
:0426D40003400B9321
:0426D80004500B138C
:0426DC00002009933E
:0426E00005C0006FC2
:0426E40003879A636B
:0426E80010000537A2
:0426EC001E8505132F
:0426F000C9DFD0EF7F
:0426F4000400006F6F
:0426F8001000053792
:0426FC001D050513A0
:04270000C8DFD0EF6F
:042704000300006F5F
:042708001000053781
:04270C001E0505138E
:04271000C7DFD0EF60
:042714000200006F50
:042718001000053771
:04271C001F0505137D
:04272000C6DFD0EF51
:042724000100006F41
:042728001000053761
:04272C001FC50513AD
:04273000C5DFD0EF42
:042734000014041376
:0427380005340A63F7
:04273C0000040593FD
:042740001BCA851318
:04274400C49FD0EF6F
:042748000FF4759382
:04274C0000B035B3F1
:042750000025959338
:04275400053585932F
:042758000044A50391
:04275C00E6DFF0EFD5
:04276000FD4514E33C
:042764000044A78303
:042768000077C783AC
:04276C00F92786E3E0
:04277000F6F96AE329
:04277400F9778AE384
:04277800FB6790E388
:04277C00100005370D
:042780001D8505139B
:04278400C09FD0EF33
:04278800FADFF06F15
:04278C0002C12083E3
:04279000028124039B
:042794000241248357
:04279800020129030E
:04279C0001C12983CB
:0427A00001812A0386
:0427A40001412A8342
:0427A80001012B03FD
:0427AC0000C12B83BA
:0427B00000812C0375
:0427B4000301011309
:0427B8000000806736
:0427BC0000B5202321
:0427C000000080672E
:0427C40000B5222317
:0427C8000000806726
:0427CC0000B524230D
:0427D000000080671E
:0427D40000900793D7
:0427D80028C7E063CB
:0427DC0000261613AA
:0427E000100007B727
:0427E4002047879370
:0427E80000F60633BE
:0427EC000006278339
:0427F00000078067F7
:0427F4007BC007930C
:0427F80000F51A23AB
:0427FC0050000793EF
:0428000000F51B23A1
:0428040010400793E6
:0428080000F51C2398
:04280C0002800793AC
:0428100000F51D238F
:042814002EE0079318
:0428180000F51E2386
:04281C002D000793F1
:0428200000F51F237D
:042824000190079385
:0428280002F5102382
:04282C0000500793BE
:0428300002F5112379
:0428340000008067B9
:04283800674007935B
:04283C0000F51A2366
:0428400050000793AA
:0428440000F51B235D
:0428480010400793A2
:04284C0000F51C2354
:042850000280079368
:0428540000F51D234B
:042858002EE00793D4
:04285C0000F51E2342
:042860002D000793AD
:0428640000F51F2339
:042868000190079341
:04286C0002F510233E
:04287000005007937A
:04287400FBDFF06F27
:04287800000017B78E
:04287C00A507879392
:0428800000F51A2322
:04288400780007933E
:0428880000F51B2319
:04288C000C000793A2
:0428900000F51C2310
:0428940002C00793E4
:0428980000F51D2307
:04289C004650079308
:0428A00000F51E23FE
:0428A40043800793D3
:0428A80000F51F23F5
:0428AC0002900793FC
:0428B00002F51023FA
:0428B4000050079336
:0428B800F79FF06F27
:0428BC00000017B74A
:0428C00089878793EA
:0428C40000F51A23DE
:0428C80078000793FA
:0428CC0000F51B23D5
:0428D0000C0007935E
:0428D40000F51C23CC
:0428D80002C00793A0
:0428DC0000F51D23C3
:0428E00046500793C4
:0428E40000F51E23BA
:0428E800438007938F
:0428EC0000F51F23B1
:0428F00002900793B8
:0428F40002F51023B6
:0428F80000500793F2
:0428FC00F35FF06F27
:04290000000017B705
:04290400F7878713B7
:0429080000E51A23A9
:04290C00A007879306
:0429100000F51B2390
:042914002080079385
:0429180000F51C2387
:04291C000500079318
:0429200000F51D237E
:042924005DC00793F8
:0429280000F51E2375
:04292C005A000793B3
:0429300000F51F236C
:0429340003200793E2
:0429380002F5102371
:04293C0000A007935D
:04294000EF1FF06F26
:04294400000017B7C1
:04294800CE8787139C
:04294C0000E51A2365
:04295000A0078793C2
:0429540000F51B234C
:042958002080079341
:04295C0000F51C2343
:0429600005000793D4
:0429640000F51D233A
:042968005DC00793B4
:04296C0000F51E2331
:042970005A0007936F
:0429740000F51F2328
:04297800032007939E
:04297C0002F510232D
:0429800000A0079319
:04298400EADFF06F27
:04298800000017B77D
:04298C004A0787135C
:0429900000E51A2321
:04299400F0078713AE
:0429980000E51B2318
:04299C001800071305
:0429A00000E51C230F
:0429A4000580071390
:0429A80000E51D2306
:0429AC008CA787135A
:0429B00000E51E23FD
:0429B4008707879377
:0429B80000F51F23E4
:0429BC000520079358
:0429C00002F51023E9
:0429C40000A00793D5
:0429C800E69FF06F27
:0429CC00000017B739
:0429D000130787134F
:0429D40000E51A23DD
:0429D800F00787136A
:0429DC0000E51B23D4
:0429E00018000713C1
:0429E40000E51C23CB
:0429E800058007134C
:0429EC0000E51D23C2
:0429F0008CA7871316
:0429F40000E51E23B9
:0429F8008707879333
:0429FC0000F51F23A0
:042A00000520079313
:042A040002F51023A4
:042A080000A0079390
:042A0C00E25FF06F26
:042A1000000027B7E4
:042A1400E507871338
:042A180000E51A2398
:042A1C00E0078793B5
:042A200000F51B237F
:042A24000480079390
:042A280000F51C2376
:042A2C00020007930A
:042A300000F51D236D
:042A3400000017B7D0
:042A380011D7871318
:042A3C0000E51E2370
:042A40000E07879363
:042A440000F51F2357
:042A480000E0079310
:042A4C0002F510235C
:042A50000080079368
:042A5400DDDFF06F63
:042A58000085D7839B
:042A5C0000F51A2344
:042A600000A5D78373
:042A640000F51B233B
:042A680000C5D7834B
:042A6C0000F51C2332
:042A700000E5D78323
:042A740000F51D2329
:042A78000105D783FA
:042A7C0000F51E2320
:042A80000125D783D2
:042A840000F51F2317
:042A88000145D783AA
:042A8C0002F510231C
:042A90000165D78382
:042A9400D9DFF06F27
:042A9800FF01011326
:042A9C0000112623DC
:042AA000008124236A
:042AA4000091222358
:042AA800000504130E
:042AAC000006849309
:042AB0000005278373
:042AB4000007A02354
:042AB800000527836B
:042ABC000007A42348
:042AC000D15FF0EF03
:042AC4000064570350
:042AC800000427835C
:042ACC000007A0233C
:042AD0000004278354
:042AD40000E7A6234E
:042AD800004427038C
:042ADC000004278348
:042AE000000106B734
:042AE40000D7A02354
:042AE800000427833C
:042AEC0000E7A62336
:042AF00000A45703E4
:042AF4000004278330
:042AF800000206B71B
:042AFC0000D7A0233C
:042B00000004278323
:042B040000E7A6231D
:042B0800008427031B
:042B0C000004278317
:042B1000000306B701
:042B140000D7A02323
:042B1800000427830B
:042B1C0000E7A62305
:042B20000144570312
:042B240000042783FF
:042B2800000406B7E8
:042B2C0000D7A0230B
:042B300000042783F3
:042B340000E7A623ED
:042B380001645703DA
:042B3C0000042783E7
:042B4000000506B7CF
:042B440000D7A023F3
:042B480000042783DB
:042B4C0000E7A623D5
:042B500001845703A2
:042B540000042783CF
:042B5800000606B7B6
:042B5C0000D7A023DB
:042B600000042783C3
:042B640000E7A623BD
:042B680001A457036A
:042B6C0000042783B7
:042B7000000706B79D
:042B740000D7A023C3
:042B780000042783AB
:042B7C0000E7A623A5
:042B800001C4570332
:042B8400000427839F
:042B8800000806B784
:042B8C0000D7A023AB
:042B90000004278393
:042B940000E7A6238D
:042B980001E45703FA
:042B9C000004278387
:042BA000000906B76B
:042BA40000D7A02393
:042BA800000427837B
:042BAC0000E7A62375
:042BB00002045703C1
:042BB400000427836F
:042BB800000A06B752
:042BBC0000D7A0237B
:042BC0000004278363
:042BC40000E7A6235D
:042BC8000224570389
:042BCC000004278357
:042BD000000B06B739
:042BD40000D7A02363
:042BD800000427834B
:042BDC0000E7A62345
:042BE0000064949366
:042BE4001C04F49346
:042BE80002A4E493CC
:042BEC000004278337
:042BF0000007A02317
:042BF400000427832F
:042BF8000097A4237B
:042BFC0000C1208371
:042C00000081240328
:042C040000412483E4
:042C080001010113B2
:042C0C0000008067DD
:042C1000FF010113AC
:042C14000011262362
:042C180000812423F0
:042C1C000005041398
:042C20000005278301
:042C24000007A023E2
:042C280000052783F9
:042C2C000007A423D6
:042C3000BA5FF0EFA8
:042C340000645703DE
:042C380000042783EA
:042C3C000007A023CA
:042C400000042783E2
:042C440000E7A623DC
:042C4800004427031A
:042C4C0000042783D6
:042C5000000106B7C2
:042C540000D7A023E2
:042C580000042783CA
:042C5C0000E7A623C4
:042C600000A4570372
:042C640000042783BE
:042C6800000206B7A9
:042C6C0000D7A023CA
:042C700000042783B2
:042C740000E7A623AC
:042C780000842703AA
:042C7C0000042783A6
:042C8000000306B790
:042C840000D7A023B2
:042C8800000427839A
:042C8C0000E7A62394
:042C900001445703A1
:042C9400000427838E
:042C9800000406B777
:042C9C0000D7A0239A
:042CA0000004278382
:042CA40000E7A6237C
:042CA8000164570369
:042CAC000004278376
:042CB000000506B75E
:042CB40000D7A02382
:042CB800000427836A
:042CBC0000E7A62364
:042CC0000184570331
:042CC400000427835E
:042CC800000606B745
:042CCC0000D7A0236A
:042CD0000004278352
:042CD40000E7A6234C
:042CD80001A45703F9
:042CDC000004278346
:042CE000000706B72C
:042CE40000D7A02352
:042CE800000427833A
:042CEC0000E7A62334
:042CF00001C45703C1
:042CF400000427832E
:042CF800000806B713
:042CFC0000D7A0233A
:042D00000004278321
:042D040000E7A6231B
:042D080001E4570388
:042D0C000004278315
:042D1000000906B7F9
:042D140000D7A02321
:042D18000004278309
:042D1C0000E7A62303
:042D2000020457034F
:042D240000042783FD
:042D2800000A06B7E0
:042D2C0000D7A02309
:042D300000042783F1
:042D340000E7A623EB
:042D38000224570317
:042D3C0000042783E5
:042D4000000B06B7C7
:042D440000D7A023F1
:042D480000042783D9
:042D4C0000E7A623D3
:042D500000042783D1
:042D54000007A023B1
:042D58000004270349
:042D5C00000017B7A5
:042D6000A1B78793FD
:042D640000F724232D
:042D680000C1208303
:042D6C0000812403BB
:042D70000101011349
:042D74000000806774
:042D780000052783A8
:042D7C000105959325
:042D800000B7A023D5
:042D8400000527839C
:042D880000C7A623B7
:042D8C00000080675C
:042D90000005278390
:042D9400008595938E
:042D980000B7A023BD
:042D9C000005278384
:042DA00000C7A423A1
:042DA4000000806744
:042DA8000005278378
:042DAC000085959376
:042DB00000B7A023A5
:042DB400000527836C
:042DB8000087A503E8
:042DBC00000080672C
:042DC0000005278360
:042DC40000B7A02391
:042DC8000005278358
:042DCC000047A50314
:042DD0000000806718
:042DD400000527834C
:042DD800100006934E
:042DDC0000D7A02359
:042DE00000052703C0
:042DE40000872783BA
:042DE800F007F79366
:042DEC0000F5E5B356
:042DF00000D72023C5
:042DF400000527832C
:042DF80000B7A42359
:042DFC0000008067EC
:042E0000000527831F
:042E040010000613A1
:042E080000C7A0233C
:042E0C000005268314
:042E10000086A7830E
:042E1400FF0007377D
:042E18000FF7071396
:042E1C0000E7F7B321
:042E20000085959301
:042E240000F5E5B31D
:042E280000C6A0231D
:042E2C0000052783F3
:042E300000B7A42320
:042E340000008067B3
:042E380000052783E7
:042E3C000070071308
:042E400000E7A023E4
:042E440000052783DB
:042E48000047A50397
:042E4C0001455513D4
:042E500000157513E1
:042E54000000806793
:042E580000052783C7
:042E5C0000700713E8
:042E600000E7A023C4
:042E640000052783BB
:042E68000047A50377
:042E6C003FF57513A6
:042E70000000806777
:042E740000052783AB
:042E780000700713CC
:042E7C0000E7A023A8
:042E8000000527839F
:042E84000047A5035B
:042E880000A5551339
:042E8C003FF5751386
:042E90000000806757
:042E9400000527838B
:042E980000400713DC
:042E9C0000E7A02388
:042EA000000527837F
:042EA4000047A783B9
:042EA80003F7F51324
:042EAC000200071306
:042EB00002E50863CC
:042EB4000207F79387
:042EB80000078E631E
:042EBC0040A00533FA
:042EC00001F5751390
:042EC40040A00533F2
:042EC8000185151358
:042ECC0041855513D4
:042ED0000000806717
:042ED400018515134C
:042ED80041855513C8
:042EDC00000080670B
:042EE000FE000513D8
:042EE4000000806703
:042EE8000005278337
:042EEC000040071388
:042EF00000E7A02334
:042EF400000527832B
:042EF8000047A78365
:042EFC000087D793E1
:042F000003F7F513CB
:042F040002000713AD
:042F080002E5086373
:042F0C000207F7932E
:042F100000078E63C5
:042F140040A00533A1
:042F180001F5751337
:042F1C0040A0053399
:042F200001851513FF
:042F2400418555137B
:042F280000008067BE
:042F2C0001851513F3
:042F3000418555136F
:042F340000008067B2
:042F3800FE0005137F
:042F3C0000008067AA
:042F400000052783DE
:042F4400004007132F
:042F480000E7A023DB
:042F4C0000052783D2
:042F50000047A7830C
:042F54000107D79307
:042F580003F7F51373
:042F5C000200071355
:042F600002E5026321
:042F64000207F793D6
:042F68000007886373
:042F6C0000157513C4
:042F700040A0053345
:042F74000000806772
:042F780001851513A7
:042F7C004185551323
:042F80000000806766
:042F8400FE00051333
:042F8800000080675E
:042F8C000005278392
:042F900000500713D3
:042F940000E7A0238F
:042F98000005278386
:042F9C000047A783C0
:042FA000011795136D
:042FA40001155513AB
:042FA80000004737A7
:042FAC0002E50A63CD
:042FB00000E7F7B38C
:042FB400020780632D
:042FB80040A00533FD
:042FBC0001151513D3
:042FC000011555138F
:042FC40040A00533F1
:042FC80001051513D7
:042FCC004105551353
:042FD0000000806716
:042FD40001051513CB
:042FD8004105551347
:042FDC00000080670A
:042FE000FFFFC537F3
:042FE4000000806702
:042FE8000005278336
:042FEC000060071367
:042FF00000E7A02333
:042FF400000527832A
:042FF8000047A78364
:042FFC0000379513F2
:04300000003555132F
:04300400100007377A
:0430080000E7F7B333
:04300C0000078A63CC
:0430100040A00533A4
:04301400004515134B
:043018000045551307
:04301C0040A0053398
:0430200000008067C5
:0430240000C5AE0332
:043028000105A303F8
:04302C000145A8832F
:043030000185A8036B
:0430340001C5A60329
:043038000205A68364
:04303C000245A7039F
:0430400001C5202383
:0430440000652223DE
:043048000115242327
:04304C000105262331
:0430500000C528236C
:0430540000D52A2356
:0430580000E52C2340
:04305C000000806789
:0430600000052783BD
:043064000007A0239E
:0430680000052783B5
:04306C000047A50371
:043070000000806775
:0430740000052783A9
:04307800001007132A
:04307C0000E7A023A6
:04308000000527839D
:043084000047A50359
:04308800000080675D
:04308C000005278391
:043090000020071302
:0430940000E7A0238E
:043098000005278385
:04309C000047A50341
:0430A0000000806745
:0430A4000005278379
:0430A80000300713DA
:0430AC0000E7A02376
:0430B000000527836D
:0430B4000047A50329
:0430B800000080672D
:0430BC000005079371
:0430C0007BC00713B7
:0430C40006E50E63AC
:0430C8006740071343
:0430CC0008E50663AA
:0430D00000001737AE
:0430D400A507071332
:0430D80000300513AC
:0430DC0006E7886318
:0430E000000017379E
:0430E40089870713BE
:0430E80008E7806312
:0430EC000000173792
:0430F000F787071344
:0430F40008E7826304
:0430F8000000173786
:0430FC00CE87071361
:0431000008E78663F3
:043104000000173779
:043108004A07071358
:04310C0008E78A63E3
:04311000000017376D
:043114001307071383
:043118000AE78063DF
:04311C000000273751
:04312000E5070713A5
:043124000AE79663BD
:04312800000017B7D5
:04312C0011D787939D
:0431300000900513F3
:0431340000F58C63B3
:04313800003005134B
:04313C0000008067A8
:043140002EE00793E3
:04314400003005133F
:0431480000F58463A7
:04314C000000806798
:043150000010051353
:043154000000806790
:04315800D1258513E5
:04315C0000A0353367
:04316000002505132E
:043164000000806780
:04316800B9B585135D
:04316C000015351302
:04317000003505130E
:043174000000806770
:043178005DC007939C
:04317C000030051307
:04318000FCF596E3E1
:0431840000500513DF
:04318800000080675C
:04318C005DC0079388
:0431900000300513F3
:04319400FAF59CE3C9
:0431980000600513BB
:04319C000000806748
:0431A000000017B75D
:0431A4008CA78793DA
:0431A80000300513DB
:0431AC00FAF590E3BD
:0431B0000070051393
:0431B4000000806730
:0431B800000017B745
:0431BC008CA78793C2
:0431C00000300513C3
:0431C400F8F594E3A3
:0431C800008005136B
:0431CC000000806718
:0431D00000300513B3
:0431D400F79FF06F02
:0431D8000005278344
:0431DC000007A02325
:0431E000000527833C
:0431E4000087A68337
:0431E800BFF6E71334
:0431EC0000058463F3
:0431F0004006E7139B
:0431F4000007A0230D
:0431F8000005278324
